:100000000C9437010C945F010C945F010C945F0118
:100010000C945F010C945F010C945F010C94FE033F
:100020000C945F010C945F010C945F010C945F01D0
:100030000C945F010C945F010C945F010C945F01C0
:100040000C94B4030C945F010C94EF020C94C9025D
:100050000C945F010C945F010C945F010C945F01A0
:100060000C945F010C945F01030C160C260C360CEB
:10007000460C570C680C790C50415F4D41580050AC
:10008000415F484947480050415F4C4F570050413D
:100090005F4D494E0031362062697473003820622A
:1000A0006974730044697361626C6564006E5246E2
:1000B00032344C30312B006E524632344C303100E9
:1000C0003235304B42505300324D42505300314D87
:1000D00042505300000000002300260029000000C9
:1000E00000080002010000030407000000000000F7
:1000F00000005354415455530909203D20307825C0
:100100003032782052585F44523D25782054585F51
:1001100044533D2578204D41585F52543D25782069
:1001200052585F505F4E4F3D25782054585F4655DA
:100130004C4C3D25780D0A00504120506F77657278
:1001400009203D2025530D0A008E0087007F00788E
:1001500000435243204C656E67746809203D20259A
:10016000530D0A00A4009D0095004D6F64656C0955
:1001700009203D2025530D0A00B700AD00446174ED
:1001800061205261746509203D2025530D0A00CE7F
:1001900000C800C00044594E50442F4645415455B4
:1001A000524500434F4E464947090052465F53456A
:1001B0005455500052465F43480900454E5F52581F
:1001C0004144445200454E5F4141090052585F503E
:1001D000575F50302D360054585F41444452090057
:1001E00052585F414444525F50322D350052585F9F
:1001F000414444525F50302D31000A0B0C0D0E0F5C
:100200000D0A00253032780020307800255309206F
:100210003D000D0A00203078253032780025530942
:10022000203D0011121314151600010203040500ED
:10023000000000250028002B0000000000240027FB
:10024000002A00040404040404040402020202025A
:10025000020303030303030102040810204080018A
:10026000020408102001020408102000CA0C112406
:100270001FBECFEFD8E0DEBFCDBF11E0A0E0B1E000
:10028000E6E8F5E202C005900D92A036B107D9F775
:1002900023E0A0E6B1E001C01D92A130B207E1F772
:1002A00011E0C7E3D1E004C02197FE010E943A0D9E
:1002B000C633D107C9F70E9431080C94C1120C94BF
:1002C0000000CF92DF92EF92FF920F931F93CF9394
:1002D000DF936C017A018B01C0E0D0E0CE15DF0521
:1002E00089F0D8016D918D01D601ED91FC910190BD
:1002F000F081E02DC6010995892B11F47E0102C021
:100300002196ECCFC701DF91CF911F910F91FF9004
:10031000EF90DF90CF900895FC01918D828D98171A
:1003200061F0828DDF01A80FB11D5D968C91928DD9
:100330009F5F9F73928F90E008958FEF9FEF0895D6
:10034000FC01918D828D981731F0828DE80FF11D9F
:10035000858D90E008958FEF9FEF0895FC01918DBA
:10036000228D892F90E0805C9F4F821B91098F73B3
:100370009927089588E492E00E94AE0121E0892B3C
:1003800009F420E0822F0895FC01848DDF01A80F7D
:10039000B11DA35ABF4F2C91848D90E001968F73AD
:1003A0009927848FA689B7892C93A089B1898C91CC
:1003B00080648C93938D848D981306C00288F38992
:1003C000E02D80818F7D80830895EF92FF920F93BF
:1003D0001F93CF93DF93EC0181E0888F9B8D8C8DF1
:1003E000981305C0E889F989808185FD24C0F62E1F
:1003F0000B8D10E00F5F1F4F0F731127E02E8C8DB8
:10040000E8120CC00FB607FCFACFE889F9898081A1
:1004100085FFF5CFCE010E94C401F1CF8B8DFE0187
:10042000E80FF11DE35AFF4FF0820B8FEA89FB8939
:100430008081806207C0EE89FF896083E889F9893D
:1004400080818064808381E090E0DF91CF911F9173
:100450000F91FF90EF900895CF93DF93EC01888D7B
:100460008823C9F0EA89FB89808185FD05C0A889B8
:10047000B9898C9186FD0FC00FB607FCF5CF80813E
:1004800085FFF2CFA889B9898C9185FFEDCFCE0188
:100490000E94C401E7CFDF91CF91089580E090E002
:1004A000892B29F00E94BA0181110C940000089553
:1004B000833081F028F4813099F08230A1F00895E2
:1004C0008730A9F08830B9F08430D1F48091800071
:1004D0008F7D03C0809180008F7780938000089586
:1004E00084B58F7702C084B58F7D84BD08958091D7
:1004F000B0008F7703C08091B0008F7D8093B000F3
:1005000008953FB7F8948091330290913402A091FE
:100510003502B091360226B5A89B05C02F3F19F0D1
:100520000196A11DB11D3FBFBA2FA92F982F882773
:10053000820F911DA11DB11DBC01CD0142E0660FCE
:10054000771F881F991F4A95D1F70895CF93C82F19
:10055000682F88E492E00E94E5018C2FCC0F990B64
:10056000CF91089526EC32EC42EC52EC62EC70E054
:1005700080E090E00E942E060E94C0056EE186E1B8
:1005800091E00E94560586E191E00C9464060E9479
:100590000A0E1F920F920FB60F9211242F933F93C2
:1005A0004F935F936F937F938F939F93AF93BF937B
:1005B000EF93FF9388E492E00E94C401FF91EF91D2
:1005C000BF91AF919F918F917F916F915F914F916B
:1005D0003F912F910F900FBE0F901F9018951F9273
:1005E0000F920FB60F9211242F938F939F93EF9337
:1005F000FF93E0915802F09159028081E0915E02F0
:10060000F0915F0282FD12C09081809161028F5F44
:100610008F7320916202821751F0E0916102F0E045
:10062000E85BFD4F958F8093610201C08081FF914F
:10063000EF919F918F912F910F900FBE0F901F9070
:1006400018951F93CF93DF93282F30E0F901E252E2
:10065000FF4F8491F901E95AFD4FD491F901ED5B07
:10066000FD4FC491CC23C9F0162F81110E9458026E
:10067000EC2FF0E0EE0FFF1FE15DFD4FA591B4916F
:100680008FB7F894111105C09C91ED2FE095E923E7
:1006900002C0EC91ED2BEC938FBFDF91CF911F91B6
:1006A0000895EF92FF920F931F93CF93DF9362E32E
:1006B00070E00E94040D7B01C0E0D0E00FE510E087
:1006C000CE15DF0581F061E083E10E942103C801BE
:1006D0000197F1F760E083E10E942103C8010197CF
:1006E000F1F72196EDCFDF91CF911F910F91FF9000
:1006F000EF9008958F929F92AF92BF92CF92DF9228
:10070000EF92FF926B017C010E9481024B015C0120
:10071000C114D104E104F104F1F00E948102DC0172
:10072000CB0188199909AA09BB09883E9340A10504
:10073000B10570F321E0C21AD108E108F10888EE92
:10074000880E83E0981EA11CB11CC114D104E104E1
:10075000F10419F7DDCFFF90EF90DF90CF90BF90BD
:10076000AF909F908F9008951F920F920FB60F92A7
:1007700011242F933F938F939F93AF93BF938091B7
:100780002F0290913002A0913102B091320230914B
:100790002E0223E0230F2D3720F40196A11DB11D59
:1007A00005C026E8230F0296A11DB11D20932E023D
:1007B00080932F0290933002A0933102B0933202C3
:1007C0008091330290913402A0913502B0913602AB
:1007D0000196A11DB11D8093330290933402A09322
:1007E0003502B0933602BF91AF919F918F913F91A7
:1007F0002F910F900FBE0F901F9018951F920F9280
:100800000FB60F9211242F933F934F935F936F93E3
:100810007F938F939F93AF93BF93CF93DF93EF9388
:10082000FF932091600130E0F901E252FF4F849183
:10083000F901E95AFD4FD491F901ED5BFD4FC491E7
:10084000CC23A1F081110E945802EC2FF0E0EE0FB2
:10085000FF1FEC52FF4FA591B491EC91ED2331E0D5
:1008600020E009F430E0832F922F02C080E090E076
:1008700020916301309164012F5F3F4F30936401F9
:100880002093630120912D02243618F025E0209357
:100890006101209161012330C1F018F4223039F058
:1008A00059C0243069F1253009F44EC053C0009777
:1008B00009F050C020916301309164012436310564
:1008C00008F444C010922D021DC08130910509F03A
:1008D00041C0E0912D0221E02E0F20932D02F0E087
:1008E0002091630130916401EE0FFF1FE05AFE4F2B
:1008F00036832583109264011092630124E021C0A5
:100900000097B9F4E0912D0221E02E0F20932D02E3
:10091000F0E02091630130916401EE0FFF1FE05A77
:10092000FE4F36832583109264011092630123E009
:1009300008C020916301309164012536310550F0E3
:1009400025E02093610106C0009721F41092640114
:100950001092630120916201222329F0892B11F466
:100960002D9A01C02D98FF91EF91DF91CF91BF910A
:10097000AF919F918F917F916F915F914F913F9137
:100980002F910F900FBE0F901F9018958EBD0000F5
:100990000DB407FEFDCF8EB50895009769F0FC01F8
:1009A00001900020E9F73197AF01481B590BBC01BA
:1009B00088E492E00C94610180E090E0089590E07A
:1009C000FC01E95AFD4F2491FC01ED5BFD4F849140
:1009D000882399F090E0880F991FFC01E75CFD4F98
:1009E000A591B491FC01E15DFD4F859194918FB784
:1009F000F894EC91E22BEC938FBF08959CB59F7D0A
:100A00009CBD9CB5937F9CBD9CB59C7F9CBD9DB5BA
:100A100091609DBD682F8091E6020E9421038FE0C6
:100A200090E00197F1F7089581E00C94FE0480E0D6
:100A30000C94FE04CF93DF931F92CDB7DEB789836A
:100A40000E94170589810E94C60489830E941405AB
:100A500089810F90DF91CF91089581EE0C941A0552
:100A60001F93CF93DF9300D0CDB7DEB76A8389831E
:100A70000E94170589818F7180620E94C604182F19
:100A80006A81862F0E94C6040E941405812F0F9050
:100A90000F90DF91CF911F910895682F8091E5020B
:100AA0009091E60289130C9421030895DF92EF924E
:100AB000FF920F931F93CF93DF931F92CDB7DEB7B3
:100AC000F82E2091EA02E62E261708F4E22E8091F5
:100AD000EB02811103C0D22EDE1801C0D12C998304
:100AE0000E94170580EA0E94C6040F2D9981192FD4
:100AF000FE0CF01631F0F80181918F010E94C604BE
:100B0000F8CFDD2029F080E00E94C604DA94F9CF06
:100B10000E94140581E00E944D058FEF0E941A0586
:100B20008073D9F380E00E944D0560E787E00E9462
:100B3000300584FF04C00E942D0580E001C081E0E3
:100B40000F90DF91CF911F910F91FF90EF90DF9069
:100B50000895CF93DF931F92CDB7DEB789830E94AC
:100B6000170589818F710E94C6048FEF0E94C60409
:100B700089830E94140589810F90DF91CF91089598
:100B800080E00E944D058091F2029091F302823044
:100B9000910538F0880F991F880F991F05970197C5
:100BA000F1F78DE10E94A90581FF10C08091F2024A
:100BB0009091F3028230910538F0880F991F880FC9
:100BC000991F05970197F1F70E942D0580E00E947B
:100BD000A905682F6E7F80E00E94300582E00E94A8
:100BE000A905E9E2F2E0E49161E070E001C0660F7E
:100BF000EA95EAF7682B82E00C943005EF92FF92B9
:100C00000F931F93CF93DF9300D01F92CDB7DEB722
:100C1000162F4A837B8389830E94170589818F71F0
:100C200080620E94C604082FE12E7B81F72E4A8144
:100C3000140F1E1531F0F70181917F010E94C60447
:100C4000F8CF0E941405802F0F900F900F90DF9126
:100C5000CF911F910F91FF90EF9008950F931F93E5
:100C6000CF93DF93CDB7DEB728970FB6F894DEBFEA
:100C70000FBECDBF29833A834B835C836D837E8314
:100C80008F83988705EE12E0F8014485BE016F5FFF
:100C90007F4F8AE00E94FE05F8014485BE016F5F28
:100CA0007F4F80E10E94FE05F801658181E10E948D
:100CB000300528960FB6F894DEBF0FBECDBFDF918A
:100CC000CF911F910F910895CF93DF930E94CD0490
:100CD000EC018DE591E00E94CD048C0F9D1FDF910A
:100CE000CF9108958F929F92AF92BF92CF92DF9251
:100CF000EF92FF920F931F93CF93DF93CDB7DEB7A1
:100D0000A1970FB6F894DEBF0FBECDBF6C01990F4F
:100D1000EE08FF08F7FE31C0E0914802F091490269
:100D20000190F081E02D6DE288E492E009958C015C
:100D300022273327A9012C193D094E095F0919A261
:100D4000CE0181967C019AE0892E912CA12CB12CA8
:100D5000CA01B901A50194010E94180D605DF70157
:100D600062937F01211531054105510589F7CF01B6
:100D70000E94CD04080F191F1EC0A701960119A2D9
:100D80008E010F5D1F4F8AE0C82ED12CE12CF12C73
:100D9000CA01B901A70196010E94180D605DF80112
:100DA00062938F01211531054105510589F7CF0166
:100DB0000E94CD048C018DE591E00E94CD04800F4E
:100DC000911FA1960FB6F894DEBF0FBECDBFDF9185
:100DD000CF911F910F91FF90EF90DF90CF90BF9038
:100DE000AF909F908F90089580E00E94A90581FDAB
:100DF0000BC0682F626080E00E94300565E070E003
:100E000080E090E00C947A0308950E94F40680E05C
:100E10000E94A905682F616080E00E94300560E7AC
:100E200087E00E94300581E00E944D058091EC0230
:100E3000882341F04091F1026CEE72E08AE00E945A
:100E4000FE0512C082E00E94A905E9E2F2E0E49109
:100E500021E030E001C0220FEA95EAF72095622FE9
:100E6000682382E00E9430058DE10E94A90581FD82
:100E70000C942D050895E4E2F2E084916091EA0279
:100E80000E94300582E00E94A905EAE2F2E0E491C6
:100E900061E070E001C0660FEA95EAF7682B82E036
:100EA0000C943005EF92FF920F931F93CF93DF9333
:100EB0001F92CDB7DEB7E42E9F938F938DE192E022
:100EC0009F938F9369830E94960E6981E60E0F901F
:100ED0000F900F900F9005E112E06E1591F0FF2436
:100EE000F394F60E862F0E94A9051F928F931F93ED
:100EF0000F930E94960E0F900F900F900F906F2DF2
:100F0000ECCF82E192E09F938F930E94960E0F9018
:100F10000F900F90DF91CF911F910F91FF90EF9065
:100F200008952F923F924F925F926F927F928F928D
:100F30009F92AF92BF92CF92DF92EF92FF920F9368
:100F40001F93CF93DF931F92CDB7DEB7562E342E6B
:100F50006DB67EB69F938F938CE092E09F938F93B4
:100F60000E94960E350C0F900F900F900F9088E016
:100F7000C82E82E0D82E93E0A92E92E0B92E531409
:100F800009F44EC08DB69EB69091F102092F10E083
:100F90002DB73EB7201B310B0FB6F8943EBF0FBEE6
:100FA0002DBFEDB7FEB731967F0122242394250C87
:100FB00099830E941705852D8F710E94C604270111
:100FC00099819E0D941549F08FEF99830E94C60474
:100FD000F20181932F019981F5CF0E941405DF92D0
:100FE000CF920E94960E0E0D1F1D0F900F90015074
:100FF00011090E151F0568F0F80180811F928F936B
:10100000BF92AF920E94960E0F900F900F900F908C
:10101000EECF0FB6F8949EBE0FBE8DBE522CAFCF52
:1010200080E092E09F938F930E94960E0F900F9016
:101030000FB6F8947EBE0FBE6DBE0F90DF91CF91BC
:101040001F910F91FF90EF90DF90CF90BF90AF90E6
:101050009F908F907F906F905F904F903F902F90D8
:101060000895CF93DF93CDB7DEB7C254D1090FB641
:10107000F894DEBF0FBECDBF789484B5826084BD86
:1010800084B5816084BD85B5826085BD85B581608C
:1010900085BD80916E00816080936E00109281000A
:1010A00080918100826080938100809181008160C5
:1010B0008093810080918000816080938000809186
:1010C000B10084608093B1008091B0008160809312
:1010D000B00080917A00846080937A0080917A00D9
:1010E000826080937A0080917A00816080937A0098
:1010F00080917A00806880937A001092C100E0911C
:101100005802F091590282E08083E0915402F091FC
:1011100055021082E0915602F09157028FEC8083C5
:1011200010926002E0915C02F0915D0286E08083A3
:10113000E0915A02F0915B02808180618083E091AE
:101140005A02F0915B02808188608083E0915A02AC
:10115000F0915B02808180688083E0915A02F09177
:101160005B0280818F7D808360E070E086EA92E0A0
:101170000E944B0E8091E5029091E60289130E9435
:10118000DF048091E6029091E50298130E94DF044B
:101190001FB7F89480913702811124C0EDE4F2E08A
:1011A0008491E1E6F2E09491E82FF0E0EE0FFF1F6A
:1011B000E75CFD4FA591B491EC91E92321F461E046
:1011C0008AE00E9421038AE00E94DF048CB58061DE
:1011D0008CBD8CB580648CBD8DE00E94DF048BE0FB
:1011E0000E94DF04809137028F5F809337021FBF18
:1011F00080E00E944D0581E00E94FE0465E070E001
:1012000080E090E00E947A036CE080E00E9430056C
:101210006FE584E00E94300586E00E94A905877D85
:10122000182F10628BE990E0A0E0B0E08093F2020A
:101230009093F302A093F402B093F502612F86E03D
:101240000E94300586E00E94A905811709F4D7C1E4
:1012500086E00E94A90586E00E94A90545E550E0C8
:1012600060E070E04093F2025093F3026093F40266
:101270007093F502682F677D86E00E94300586E056
:101280000E94A9050E94170580E50E94C60483E715
:101290000E94C6040E94140560E08DE10E943005A2
:1012A00060E08CE10E94300560E787E00E94300535
:1012B0006CE485E00E94300582EE0E941A050E94CF
:1012C0002D050E94F40680E00E94A905682F6E7F1C
:1012D00080E00E94300565EA84E00E94300586E0E7
:1012E0000E94A905682F676086E00E94300520E013
:1012F00030E040E050E060E070E080E090E00E948C
:101300002E0663E184E391E00E94560519AA1AAA09
:101310001BAA1CAA1DAA1EAA1FAA18AEEBEFF1E079
:1013200084914091F102BE016F5C7F4F0E94FE05E7
:101330000E943B070E9405078FEF0E941A05282F85
:1013400030E0982F91701F929F93359527952770C5
:1013500033273F932F9384FB992790F91F929F93F4
:1013600085FB992790F91F929F9386FB992790F907
:101370001F929F931F928F9382EF90E09F938F9382
:101380000E94960E42E06AE08DEE91E00E94910785
:1013900044E06CE080EE91E00E94520741E060E1A1
:1013A00087ED91E00E94910746E061E18CEC91E0CD
:1013B0000E94520741E061E085EC91E00E945207F3
:1013C00041E062E08BEB91E00E94520741E065E072
:1013D00084EB91E00E94520741E066E08BEA91E0E5
:1013E0000E94520741E060E083EA91E00E945207C8
:1013F00042E06CE185E991E00E94520786E00E949C
:10140000A90588720FB6F894DEBF0FBECDBF80323B
:1014100041F021E090E0883009F020E0E22FF92F40
:1014200002C0E2E0F0E0EE0FFF1FE157FE4F8591B2
:1014300094919F938F938DE791E09F938F930E9458
:10144000960EE091E902F0E0EE0FFF1FE758FE4F25
:10145000859194919F938F938AE691E09F938F93C8
:101460000E94960E80E00E94A905182F81E00E943C
:10147000A9050FB6F894DEBF0FBECDBF13FD02C0A5
:10148000882329F012FD06C0E1E0F0E005C0E0E0AD
:10149000F0E002C0E2E0F0E0EE0FFF1FEC59FE4F7B
:1014A000859194919F938F9381E591E09F938F9382
:1014B0000E94960E86E00E94A9058670E82FF0E053
:1014C000E75BFE4F859194919F938F9388E391E022
:1014D0009F938F930E94960E85E00E94DF0484E024
:1014E0000E94DF0483E00E94DF048EE00E94DF049C
:1014F0008FE00E94DF0480E10E94DF0481E10E940E
:10150000DF0482E10E94DF0461E08EE00E9421039B
:1015100068EE73E080E090E00E947A0360E08EE085
:101520000E9421030FB6F894DEBF0FBECDBFCE01DF
:1015300001967C01EBE14E2EE3E05E2EFBED6F2E7B
:10154000F5E17F2E86EC89A782EC8AA78BA78CA772
:101550008DA71EA61FA618AAEBEFF1E0849140917B
:10156000F102BE01675D7F4F0E94FE050E943B07AE
:101570000E94050787E10E94A90580FF44C03CC086
:101580000E94140560E787E00E943005C7010E94B1
:10159000640681E090E0A12CB12CF80121918F012B
:1015A0002E3209F45C01019681329105B1F700E019
:1015B00010E09E012F5D3F4F3CAF2BAFCE01C9968F
:1015C0009EAF8DAF5BE1852E55E3952E0A151B0569
:1015D0009CF4D801F701E00FF11F8081803409F0FD
:1015E00040C00F5F1F4FF701E00FF11F8081813373
:1015F00009F4CBC10E94B2020E944E02A3CF81E047
:101600008093E90225CE80E2F70111928A95E9F7ED
:101610008091EA02803208F4BBC160E2C62E90914C
:10162000EB02911103C0D82EDC1801C0D12C0E940E
:10163000170581E60E94C60487015701CA94FFEF8F
:10164000CF1639F08FEF0E94C604F50181935F0138
:10165000F5CFDD2009F494CF8FEF0E94C604DA9411
:10166000F8CF8C3209F091C1E3E0F0E0EC0FFD1F00
:10167000E00FF11F208084E090E08C0F9D1F800F11
:10168000911FFC01C0800D5F1F4F22E030E02C0F46
:101690003D1FA20FB31F8C91833609F09AC031E32E
:1016A000C31297C087E491E00E94640663E070E093
:1016B00080E090E00E94400D6C01009709F485C025
:1016C000FC0110826FE471E00E94210E6FE471E072
:1016D000C6010E94180E892B09F077C083E10E9491
:1016E000DF0460E083E10E94210388E398E10E9427
:1016F00051038BE993E70197F1F740E2242E312C57
:1017000040E051EE60E070E588E592E04FAF219651
:101710005FAF219722966FAF229723967FAF2397D3
:101720000E9451034FAD21965FAD219722966FAD78
:10173000229723967FAD239777FF02C0C40101C093
:10174000C3010197F1F7440F551F661F771FF1E0A2
:101750002F1A3108C9F620E2222E312C4FEF5EE11C
:101760006FEF7FEA88E592E04FAF21965FAF219758
:1017700022966FAF229723967FAF23970E94510343
:101780004FAD21965FAD219722966FAD229723969C
:101790007FAD239777FF02C0C40101C0C301019749
:1017A000F1F7440F551F661F771F21E0221A3108F9
:1017B000C9F688E592E00E9451038BE993E701970F
:1017C000F1F788E592E00E945103C6010E943F11A3
:1017D000DCC0022C000C3308C101C0970E947206C5
:1017E0000C2C000CDD0830E3C31AD108C6010E949E
:1017F0007206F101F197E830F10508F08AC0EC5C5F
:10180000FF4F0C943A0D80914602909147028C153F
:101810009D0519F40E94B2027CC06C2D8EE00E94DE
:101820002103D0924702C092460273C080914402C5
:10183000909145028C159D0569F36C2D8FE00E94F7
:101840002103D0924502C092440263C080914202BB
:10185000909143028C159D05E9F26C2D80E10E9468
:101860002103D0924302C092420253C080914002B1
:10187000909141028C159D0569F26C2D81E10E94C9
:101880002103D0924102C092400243C080913E02A7
:1018900090913F028C159D0509F4BCCF6C2D82E11F
:1018A0000E942103D0923F02C0923E0232C080913A
:1018B0003C0290913D028C159D0509F4ABCF6C2D37
:1018C00083E00E942103D0923D02C0923C0221C0DD
:1018D00080913A0290913B028C159D0509F49ACFB4
:1018E0006C2D84E00E942103D0923B02C0923A0208
:1018F00010C080913802909139028C159D0509F431
:1019000089CF6C2D85E00E942103D0923902C092CC
:10191000380288E0EBADFCAD11928A95E9F781E3DE
:1019200089AF8AE08AAFFEADFF932DAD2F9382E59C
:1019300091E09F938F933CAD3F938BAD8F930E942B
:10194000280E26EC32EC42EC52EC62EC70E080E0C7
:1019500090E00E942E060E94C005C2010197F1F797
:101960000F900F900F900F900F900F9085E0C82E62
:10197000D12C65E088E591E00E945605C2010197EF
:10198000F1F791E0C91AD108A1F70F5F1F4F1ECEE2
:10199000C82E45CEE8E4F2E01382128288EE93E08E
:1019A000A0E0B0E084839583A683B7838AE091E0CA
:1019B0009183808385EC90E09587848784EC90E028
:1019C0009787868780EC90E0918B808B81EC90E00C
:1019D000938B828B82EC90E0958B848B86EC90E0ED
:1019E000978B868B118E128E138E148EE5EEF2E09D
:1019F00089E080838AE08183148280E28583168275
:101A000085E0848717820895AA1BBB1B51E107C09C
:101A1000AA1FBB1FA617B70710F0A61BB70B881F7E
:101A2000991F5A95A9F780959095BC01CD0108950D
:101A3000A1E21A2EAA1BBB1BFD010DC0AA1FBB1FD2
:101A4000EE1FFF1FA217B307E407F50720F0A21B44
:101A5000B30BE40BF50B661F771F881F991F1A94B1
:101A600069F760957095809590959B01AC01BD01DB
:101A7000CF010895EE0FFF1F0590F491E02D09941A
:101A8000A0E0B0E0E6E4FDE00C948E12EC010097DB
:101A900021F4CB010E94AA10B8C0FC01E60FF71F89
:101AA0009C0122503109E217F30708F4ACC0D901B8
:101AB0000D911C91119706171707B0F0053011050D
:101AC00008F49FC0C80104978617970708F499C0C7
:101AD00002501109061B170B019311936D937C9310
:101AE000CF010E943F118DC05B01A01AB10A4C01C9
:101AF000800E911EA091FF02B091000340E050E0E3
:101B0000E12CF12C109709F44AC0A815B905D1F5BC
:101B10006D907C901197630182E0C80ED11CCA14AD
:101B2000DB0480F1A3014A195B096A0182E0C80E57
:101B3000D11C1296BC9012971396AC91B5E0CB16BF
:101B4000D10440F0B282A38351834083D9016D93C5
:101B50007C930AC00E5F1F4FC301800F911FF901D4
:101B600091838083EB2DFA2FE114F10431F0D7013A
:101B70001396FC93EE93129744C0F0930003E09306
:101B8000FF023FC08D919C9111974817590708F4A7
:101B9000AC017D0112960D90BC91A02DB3CF809128
:101BA000FD029091FE0288159905E1F4461757074A
:101BB000C8F48091000190910101009741F48DB724
:101BC0009EB74091040150910501841B950BE817C5
:101BD000F907C8F4F093FE02E093FD02F901718366
:101BE00060830FC0CB010E94AA107C01009759F0BE
:101BF000A801BE010E940F0ECE010E943F11C70135
:101C000004C0CE0102C080E090E0CDB7DEB7EEE0C8
:101C10000C94AA1281E090E0F8940C94C112FB019C
:101C2000DC0102C001900D9241505040D8F7089558
:101C3000FB01DC018D91019080190110D9F3990B02
:101C40000895FB01DC0101900D920020E1F7089559
:101C5000AEE0B0E0EEE2FEE00C9498120D891E8931
:101C600086E08C831A8309838FEF9FE79E838D83A1
:101C7000AE01475E5F4F6F89788DCE0101960E945D
:101C8000BC0E2F813885F801E20FF31F10822E96CB
:101C9000E4E00C94B4120F931F93CF93DF9300975B
:101CA00031F46115710519F480E090E03AC08B01C0
:101CB000EC016EE070E081E090E00E948E10FC018B
:101CC000892B91F380E883830115110571F0138747
:101CD000028781E883838091F7029091F802892B33
:101CE00021F4F093F802E093F7022097C9F0D1872E
:101CF000C0878381826083838091F9029091FA0288
:101D0000892B71F4F093FA02E093F9028091FB02BF
:101D10009091FC02892B21F4F093FC02E093FB02EA
:101D2000CF01DF91CF911F910F910895A0E0B0E016
:101D3000ECE9FEE00C949812AE01495F5F4FDA01C6
:101D40006D917D91AD0107EF12E0F80182819381E1
:101D5000DC0113962C911397286013962C930E9404
:101D6000BC0ED8011296ED91FC9113972381277F29
:101D70002383E4E00C94B412ACE0B0E0E2ECFEE0CB
:101D80000C948A127C016B018A01FC011782168275
:101D9000838181FFBDC1CE0101964C01F701938182
:101DA000F60193FD859193FF81916F01882309F4DA
:101DB000ABC1853239F493FD859193FF81916F0119
:101DC000853229F4B70190E00E94F411E7CF512C3D
:101DD000312C20E02032A0F48B3269F030F48032D4
:101DE00059F0833269F420612CC08D3239F0803390
:101DF00039F4216026C02260246023C0286021C0FD
:101E000027FD27C030ED380F3A3078F426FF06C0A2
:101E1000FAE05F9E300D1124532E13C08AE0389EE5
:101E2000300D1124332E20620CC08E3221F426FD99
:101E30006BC1206406C08C3611F4206802C088365D
:101E400041F4F60193FD859193FF81916F0181111A
:101E5000C1CF982F9F7D9554933028F40C5F1F4F6E
:101E6000FFE3F9830DC0833631F0833771F083359A
:101E700009F05BC022C0F801808189830E5F1F4F8B
:101E800044244394512C540115C03801F2E06F0EE4
:101E9000711CF801A080B18026FF03C0652D70E0A1
:101EA00002C06FEF7FEFC5012C870E94E9112C0162
:101EB00083012C852F77222E17C03801F2E06F0E98
:101EC000711CF801A080B18026FF03C0652D70E071
:101ED00002C06FEF7FEFC5012C870E94D7112C0144
:101EE0002C852068222E830123FC1BC0832D90E0CB
:101EF00048165906B0F4B70180E290E00E94F41150
:101F00003A94F4CFF50127FC859127FE81915F017A
:101F1000B70190E00E94F41131103A94F1E04F1AA9
:101F200051084114510471F7E5C0843611F0893627
:101F300039F5F80127FF07C06081718182819381A3
:101F40000C5F1F4F08C060817181072E000C880B49
:101F5000990B0E5F1F4F2F76722E97FF09C0909539
:101F60008095709561957F4F8F4F9F4F2068722E9F
:101F70002AE030E0A4010E942C12A82EA81844C028
:101F8000853729F42F7EB22E2AE030E025C0F22FCB
:101F9000F97FBF2E8F36C1F018F4883579F0B4C0C0
:101FA000803719F0883721F0AFC02F2F2061B22E73
:101FB000B4FE0DC08B2D8460B82E09C024FF0AC06A
:101FC0009F2F9660B92E06C028E030E005C020E1C2
:101FD00030E002C020E132E0F801B7FE07C06081C6
:101FE0007181828193810C5F1F4F06C06081718176
:101FF00080E090E00E5F1F4FA4010E942C12A82EDB
:10200000A818FB2DFF777F2E76FE0BC0372D3E7F65
:10201000A51450F474FE0AC072FC08C0372D3E7E31
:1020200005C0BA2C372D03C0BA2C01C0B52C34FF23
:102030000DC0FE01EA0DF11D8081803311F4397E5F
:1020400009C032FF06C0B394B39404C0832F8678CE
:1020500009F0B39433FD13C030FF06C05A2CB314FB
:1020600018F4530C5B18B32CB31468F4B70180E276
:1020700090E03C870E94F411B3943C85F5CFB314F3
:1020800010F43B1801C0312C34FF12C0B70180E3BB
:1020900090E03C870E94F4113C8532FF17C031FD6F
:1020A00003C088E790E002C088E590E0B7010CC06B
:1020B000832F867859F031FF02C08BE201C080E2A5
:1020C00037FD8DE2B70190E00E94F411A51438F4B9
:1020D000B70180E390E00E94F4115A94F7CFAA94DC
:1020E000F401EA0DF11D8081B70190E00E94F41126
:1020F000A110F5CF332009F451CEB70180E290E072
:102100000E94F4113A94F6CFF7018681978102C0BC
:102110008FEF9FEF2C96E2E10C94A6120F931F9382
:10212000CF93DF93869F8001879F100D969F100DA0
:102130001124C8010E94AA10EC01009729F0A801FF
:1021400060E070E00E94E211CE01DF91CF911F911B
:102150000F910895CF93DF938230910510F482E0C0
:1021600090E0E091FF02F091000320E030E0C0E059
:10217000D0E0309711F14081518148175907C0F0E4
:102180004817590761F482819381209719F09B8346
:102190008A832BC0909300038093FF0226C02115F1
:1021A000310519F04217530718F49A01BE01DF01F7
:1021B000EF010280F381E02DDCCF2115310509F11B
:1021C000281B390B2430310590F412968D919C9187
:1021D00013976115710521F0FB019383828304C07D
:1021E000909300038093FF02FD01329644C0FD01ED
:1021F000E20FF31F81939193225031092D933C9369
:102200003AC02091FD023091FE02232B41F420912F
:102210000201309103013093FE022093FD022091D0
:102220000001309101012115310541F42DB73EB770
:102230004091040150910501241B350BE091FD02F2
:10224000F091FE02E217F307A0F42E1B3F0B2817B4
:10225000390778F0AC014E5F5F4F2417350748F01F
:102260004E0F5F1F5093FE024093FD0281939193A6
:1022700002C0E0E0F0E0CF01DF91CF9108950F932D
:102280001F93CF93DF93009709F48CC0FC01329722
:10229000138212820091FF021091000301151105B3
:1022A00081F420813181820F931F2091FD023091B2
:1022B000FE022817390779F5F093FE02E093FD023C
:1022C00071C0D80140E050E0AE17BF0750F412963D
:1022D0002D913C911397AD012115310509F1D901DB
:1022E000F3CF9D01DA013383228360817181860FF0
:1022F000971F8217930769F4EC0128813981260F13
:10230000371F2E5F3F4F318320838A819B819383C8
:102310008283452B29F4F0930003E093FF0242C02F
:102320001396FC93EE931297ED01499159919E01FA
:10233000240F351FE217F30771F480819181840F18
:10234000951F029611969C938E938281938113968A
:102350009C938E931297E0E0F0E0D80112968D9155
:102360009C911397009719F0F8018C01F6CF8D918D
:102370009C9198012E5F3F4F820F931F2091FD0289
:102380003091FE022817390769F4309729F410922A
:1023900000031092FF0202C0138212821093FE0209
:1023A0000093FD02DF91CF911F910F910895FC01E1
:1023B0000590615070400110D8F7809590958E0F70
:1023C0009F1F0895DC0101C06D9341505040E0F71C
:1023D0000895FC016150704001900110D8F780957C
:1023E00090958E0F9F1F08950F931F93CF93DF93A8
:1023F000FB01238121FD03C08FEF9FEF28C022FF47
:1024000016C046815781248135814217530744F411
:10241000A081B1819D012F5F3F4F318320838C9339
:10242000268137812F5F3F4F3783268310C0EB0112
:10243000092F182F0084F185E02D0995892BE1F6ED
:102440008E819F8101969F838E83812F902FDF91B4
:10245000CF911F910F910895FA01AA27283051F1C9
:10246000203181F1E8946F936E7F6E5F7F4F8F4FC5
:102470009F4FAF4FB1E03ED0B4E03CD0670F781F24
:10248000891F9A1FA11D680F791F8A1F911DA11D09
:102490006A0F711D811D911DA11D20D009F4689442
:1024A0003F912AE0269F11243019305D3193DEF6EA
:1024B000CF010895462F4770405D4193B3E00FD0A0
:1024C000C9F7F6CF462F4F70405D4A3318F0495D8B
:1024D00031FD4052419302D0A9F7EACFB4E0A6956E
:1024E0009795879577956795BA95C9F70097610590
:1024F000710508959B01AC010A2E069457954795E6
:1025000037952795BA95C9F7620F731F841F951FDA
:10251000A01D08952F923F924F925F926F927F92EB
:102520008F929F92AF92BF92CF92DF92EF92FF92E3
:102530000F931F93CF93DF93CDB7DEB7CA1BDB0B8F
:102540000FB6F894DEBF0FBECDBF09942A88398834
:1025500048885F846E847D848C849B84AA84B9843B
:10256000C884DF80EE80FD800C811B81AA81B98147
:10257000CE0FD11D0FB6F894DEBF0FBECDBFED015B
:062580000895F894FFCF5E
:1025860000000103800000000000E5016101AE01CA
:102596008C01A0012C025468652076616C7565205B
:1025A6006861732062656564207365742062656680
:1025B6006F7265005468697320697320616374756E
:1025C60061746F7220310049525F53454E44004F8B
:1025D6004E0073657425730073657431000D0A002F
:00000001FF
