:100000000C9464010C948C010C948C010C948C0164
:100010000C948C010C948C010C948C010C941105A3
:100020000C948C010C948C010C948C010C948C011C
:100030000C948C010C948C010C948C010C948C010C
:100040000C94C7040C948C010C9475030C944F030E
:100050000C948C010C948C010C948C010C948C01EC
:100060000C948C010C948C017C0EC40FC40FC40F33
:10007000C40FC40FC40FC40FC40FC40FC40F710E3C
:10008000C40FC40FC40FC40FC40F7F0E820E850EA1
:10009000880E8B0E8E0E910E940E970E9A0E9D0E5C
:1000A000A00EA30EA60EA90EAC0EAF0EB20EB50E8C
:1000B000B80EC40ED90EF30E0D0F270F410F5B0FB4
:1000C000750F8F0FA90F50415F4D41580050415F90
:1000D000484947480050415F4C4F570050415F4DE1
:1000E000494E0031362062697473003820626974A9
:1000F000730044697361626C6564006E5246323409
:100100004C30312B006E524632344C303100323597
:10011000304B42505300324D42505300314D42500B
:1001200053005354415455530909203D203078253C
:100130003032782052585F44523D25782054585F21
:1001400044533D2578204D41585F52543D25782039
:1001500052585F505F4E4F3D25782054585F4655AA
:100160004C4C3D25780D0A00504120506F77657248
:1001700009203D2025530D0A00DC00D500CD00C626
:1001800000435243204C656E67746809203D20256A
:10019000530D0A00F200EB00E3004D6F64656C093B
:1001A00009203D2025530D0A000501FB0044617420
:1001B00061205261746509203D2025530D0A001C01
:1001C0000116010E0144594E50442F4645415455E5
:1001D000524500434F4E464947090052465F53453A
:1001E0005455500052465F43480900454E5F5258EF
:1001F0004144445200454E5F4141090052585F500E
:10020000575F50302D360054585F41444452090026
:1002100052585F414444525F50322D350052585F6E
:10022000414444525F50302D310000000000230053
:100230002600290000000008000201000003040756
:1002400000000000000000000D0A00253032780098
:1002500020307800255309203D000D0A0020307819
:100260002530327800255309203D00111213141552
:10027000160A0B0C0D0E0F0001020304050000000E
:1002800000250028002B0000000000240027002A81
:10029000000404040404040404020202020202032F
:1002A0000303030303010204081020408001020439
:1002B0000810200102040810206364696E6F7073D7
:1002C0007578585B0000CA0F11241FBECFEFD8E02D
:1002D000DEBFCDBF11E0A0E0B1E0E6EEF1E302C089
:1002E00005900D92A439B107D9F723E0A4E9B1E054
:1002F00001C01D92A933B207E1F711E0C4E6D1E0D5
:1003000004C02197FE010E943A10C336D107C9F7F5
:100310000E94D80A0C94F1180C940000CF92DF923E
:10032000EF92FF920F931F93CF93DF936C017A01AB
:100330008B01C0E0D0E0CE15DF0589F0D8016D91CA
:100340008D01D601ED91FC910190F081E02DC60167
:100350000995892B11F47E0102C02196ECCFC701CB
:10036000DF91CF911F910F91FF90EF90DF90CF9091
:100370000895FC01918D828D981761F0828DDF01C7
:10038000A80FB11D5D968C91928D9F5F9F73928F88
:1003900090E008958FEF9FEF0895FC01918D828D7D
:1003A000981731F0828DE80FF11D858D90E008954A
:1003B0008FEF9FEF0895FC01918D228D892F90E0A2
:1003C000805C9F4F821B91098F739927089582E863
:1003D00092E00E94DB0121E0892B09F420E0822FCA
:1003E0000895FC01848DDF01A80FB11DA35ABF4FF2
:1003F0002C91848D90E001968F739927848FA68924
:10040000B7892C93A089B1898C9180648C93938D4A
:10041000848D981306C00288F389E02D80818F7D3A
:1004200080830895EF92FF920F931F93CF93DF93F2
:10043000EC0181E0888F9B8D8C8D981305C0E88935
:10044000F989808185FD24C0F62E0B8D10E00F5FA9
:100450001F4F0F731127E02E8C8DE8120CC00FB6C2
:1004600007FCFACFE889F989808185FFF5CFCE01B5
:100470000E94F101F1CF8B8DFE01E80FF11DE35ACF
:10048000FF4FF0820B8FEA89FB898081806207C071
:10049000EE89FF896083E889F9898081806480839F
:1004A00081E090E0DF91CF911F910F91FF90EF904D
:1004B0000895CF93DF93EC01888D8823C9F0EA89F2
:1004C000FB89808185FD05C0A889B9898C9186FD4D
:1004D0000FC00FB607FCF5CF808185FFF2CFA8894A
:1004E000B9898C9185FFEDCFCE010E94F101E7CF54
:1004F000DF91CF91089580E090E0892B29F00E9450
:10050000E70181110C9400000895833081F028F4F4
:10051000813099F08230A1F008958730A9F08830B9
:10052000B9F08430D1F4809180008F7D03C0809138
:1005300080008F7780938000089584B58F7702C004
:1005400084B58F7D84BD08958091B0008F7703C0FE
:100550008091B0008F7D8093B00008953FB7F894EC
:1005600080917E0290917F02A0918002B0918102E1
:1005700026B5A89B05C02F3F19F00196A11DB11DFE
:100580003FBFBA2FA92F982F8827820F911DA11D39
:10059000B11DBC01CD0142E0660F771F881F991F76
:1005A0004A95D1F70895CF93C82F682F82E892E03B
:1005B0000E9412028C2FCC0F990BCF910895FC0151
:1005C00024813581232B31F421E061157105A1F0DF
:1005D000FB0108C0FC01808191816115710531F436
:1005E00021E0FC018081882339F005C00E941311AD
:1005F00021E0892B09F020E0822F0895FC01808101
:1006000091810C946317EF92FF920F931F93CF93F6
:10061000DF93EC01198218821B821A821D821C82D0
:1006200061157105A9F17B01FB0101900020E9F73B
:1006300031978F01061B170BB8016F5F7F4F80E06A
:1006400090E00E944010009759F0998388831B83A3
:100650000A832C813D81232B81F4FC0110820DC083
:1006600088819981009711F00E946317198218827E
:100670001D821C821B821A820BC01D830C83B70152
:10068000DF91CF911F910F91FF90EF900C941C116F
:10069000DF91CF911F910F91FF90EF9008951F92DE
:1006A0000F920FB60F9211242F933F934F935F93A6
:1006B0006F937F938F939F93AF93BF93EF93FF932A
:1006C00082E892E00E94F101FF91EF91BF91AF911A
:1006D0009F918F917F916F915F914F913F912F915A
:1006E0000F900FBE0F901F9018951F920F920FB68C
:1006F0000F9211242F938F939F93EF93FF93E09189
:100700009202F09193028081E0919802F091990217
:1007100082FD12C0908180919B028F5F8F73209128
:100720009C02821751F0E0919B02F0E0EE57FD4FE2
:10073000958F80939B0201C08081FF91EF919F91E3
:100740008F912F910F900FBE0F901F9018951F93B0
:10075000CF93DF93282F30E0F901EC5CFD4F8491BB
:10076000F901EB55FD4FD491F901EF56FD4FC491BE
:10077000CC23C9F0162F81110E948502EC2FF0E0E6
:10078000EE0FFF1FE358FD4FA591B4918FB7F8947A
:10079000111105C09C91ED2FE095E92302C0EC9169
:1007A000ED2BEC938FBFDF91CF911F910895EF92C6
:1007B000FF920F931F93CF93DF9362E370E00E9449
:1007C00004107B01C0E0D0E00FE510E0CE15DF059E
:1007D00081F061E083E10E94A703C8010197F1F76E
:1007E00060E083E10E94A703C8010197F1F7219619
:1007F000EDCFDF91CF911F910F91FF90EF90089572
:100800008F929F92AF92BF92CF92DF92EF92FF9220
:100810000F931F93CF93DF9300D000D0CDB7DEB7F7
:100820004B015C0188E398E129833A834B835C8325
:100830000E94D7038BE993E70197F1F7E0E2CE2E10
:10084000D12C0BED15E1FBE1EF2EF5E3FF2E5C81E2
:100850004B813A81298188E592E029833A834B8351
:100860005C830E94D70329813A814B815C81B7FE6A
:1008700002C0C70101C0C8010197F1F7880C991C9B
:10088000AA1CBB1C81E0C81AD10829F790E2C92E26
:10089000D12C0BED15E16BE1E62E65E3F62E88E534
:1008A00092E029833A834B835C830E94D70329819A
:1008B0003A814B815C8157FF02C0C70101C0C8016A
:1008C0000197F1F7220F331F441F551F81E0C81A0B
:1008D000D10829F788E592E00E94D7038BE993E7D6
:1008E0000197F1F788E592E00F900F900F900F902D
:1008F000DF91CF911F910F91FF90EF90DF90CF90FC
:10090000BF90AF909F908F900C94D70383E10E948B
:10091000920760E083E10C94A7038F929F92AF92BD
:10092000BF92CF92DF92EF92FF926B017C010E9407
:10093000AE024B015C01C114D104E104F104F1F0F9
:100940000E94AE02DC01CB0188199909AA09BB09F2
:10095000883E9340A105B10570F321E0C21AD10889
:10096000E108F10888EE880E83E0981EA11CB11CF6
:10097000C114D104E104F10419F7DDCFFF90EF9029
:10098000DF90CF90BF90AF909F908F9008951F926F
:100990000F920FB60F9211242F933F938F939F9333
:1009A000AF93BF9380917A0290917B02A0917C02D9
:1009B000B0917D023091790223E0230F2D3720F48E
:1009C0000196A11DB11D05C026E8230F0296A11DA9
:1009D000B11D2093790280937A0290937B02A093B9
:1009E0007C02B0937D0280917E0290917F02A09163
:1009F0008002B09181020196A11DB11D80937E02FB
:100A000090937F02A0938002B0938102BF91AF9137
:100A10009F918F913F912F910F900FBE0F901F903C
:100A200018951F920F920FB60F9211242F933F9398
:100A30004F935F936F937F938F939F93AF93BF93E6
:100A4000CF93DF93EF93FF932091A80130E0F9015A
:100A5000EC5CFD4F8491F901EB55FD4FD491F90108
:100A6000EF56FD4FC491CC23A1F081110E94850265
:100A7000EC2FF0E0EE0FFF1FE65DFD4FA591B49166
:100A8000EC91ED2331E020E009F430E0832F922F48
:100A900002C080E090E02091AC013091AD012F5F69
:100AA0003F4F3093AD012093AC012091AB0125362F
:100AB00018F026E02093A7012091A7012430D9F156
:100AC00028F4223069F02330D9F060C0253009F4D1
:100AD00053C0263009F05AC021E02093780253C059
:100AE000009709F053C02091AC013091AD0124363C
:100AF000310508F443C0109278021092AB011DC07A
:100B00008130910509F042C0E091AB0121E02E0F48
:100B10002093AB01F0E02091AC013091AD01EE0FDC
:100B2000FF1FE955FE4F308727831092AD011092C9
:100B3000AC0124E029C00097B9F4E091AB0121E0B9
:100B40002E0F2093AB01F0E02091AC013091AD016C
:100B5000EE0FFF1FE955FE4F308727831092AD013E
:100B60001092AC0123E010C02091AC013091AD0196
:100B70002536310558F007C0009741F41092AD01B9
:100B80001092AC0103C025E02093A7012091AA0197
:100B90002223B9F0892B51F48091A901882321F0F7
:100BA0008091A90161E009C02D9A0BC08091A90133
:100BB000882331F08091A90160E00E94A70301C061
:100BC0002D98FF91EF91DF91CF91BF91AF919F91C0
:100BD0008F917F916F915F914F913F912F910F90E6
:100BE0000FBE0F901F9018958EBD00000DB407FE2C
:100BF000FDCF8EB50895CF93DF93EC0165E371E0EF
:100C00000E94DF02882359F00E9486042FEF3EE104
:100C10004FEF5FEA60E071EE80E090E575C168E358
:100C200071E0CE010E94DF02882359F00E94860401
:100C30002FEF3FE14FEF5FEA60E070EE80E090E57C
:100C400063C16CE371E0CE010E94DF02882359F09A
:100C50000E9486042FEF3EE74FEF5FEA60E071E805
:100C600080E090E551C160E471E0CE010E94DF02B6
:100C7000882359F00E9486042FEF3EEB4FEF5FEA86
:100C800060E071E480E090E53FC164E471E0CE0192
:100C90000E94DF02882359F00E9486042FEF3EE372
:100CA0004FEF5FEA60E071EC80E090E52DC168E411
:100CB00071E0CE010E94DF02882359F00E94860471
:100CC0002FEF3EED4FEF5FEA60E071E280E090E5EC
:100CD0001BC16CE471E0CE010E94DF02882359F051
:100CE0000E9486042FEF3AE54FEF5FEA60E075EA75
:100CF00080E090E509C160E571E0CE010E94DF026D
:100D0000882359F00E9486042FEF3AE94FEF5FEAFB
:100D100060E075E680E090E5F7C064E571E0CE0143
:100D20000E94DF02882359F00E9486042FEF3AE1E7
:100D30004FEF5FEA60E075EE80E090E5E5C068E5C2
:100D400071E0CE010E94DF02882359F00E948604E0
:100D50002FEF3AEE4FEF5FEA60E075E180E090E55B
:100D6000D3C06DE571E0CE010E94DF02882339F027
:100D70000E9486042FEF3AEE4FEF5FEA79C060E6FB
:100D800071E0CE010E94DF02882359F00E948604A0
:100D90002FEF3AEE4FEF5FEA60E075E580E090E517
:100DA000B3C064E671E0CE010E94DF02882359F0EF
:100DB0000E9486042FEF3AEE4FEF5FEA60E075ED98
:100DC00080E090E5A1C068E671E0CE010E94DF02FC
:100DD000882359F00E9486042FEF3AEE4FEF5FEA26
:100DE00060E075E380E090E58FC06CE671E0CE01D5
:100DF0000E94DF02882359F00E9486042FEF3AEE0A
:100E00004FEF5FEA60E075EB80E090E57DC060E762
:100E100071E0CE010E94DF02882359F00E9486040F
:100E20002FEF3AE84FEF5FEA60E075E780E090E58A
:100E30006BC064E771E0CE010E94DF02882359F0A5
:100E40000E9486042FEF3EE64FEF5FEA60E071E913
:100E500080E090E559C069E771E0CE010E94DF02B1
:100E6000882359F00E9486042FEF3AE64FEF5FEA9D
:100E700060E075E980E090E547C06EE771E0CE0183
:100E80000E94DF02882359F00E9486042FEF36E685
:100E90004FEF5FEA60E079E980E090E535C062E815
:100EA00071E0CE010E94DF02882359F00E9486047F
:100EB0002FEF32E64FEF5FEA60E07DE980E090E5FA
:100EC00023C066E871E0CE010E94DF02882359F05A
:100ED0000E9486042FEF3CE64FEF5FEA60E073E983
:100EE00080E090E511C06BE871E0CE010E94DF0266
:100EF000882371F00E9486042FEF3CE64BEF5FEAF7
:100F000060E073E984E090E5DF91CF910C940004F8
:100F100060E971E0CE010E94DF028111D9CFDF913B
:100F2000CF91089590E0FC01EB55FD4F2491FC0119
:100F3000EF56FD4F8491882399F090E0880F991F18
:100F4000FC01E957FD4FA591B491FC01E358FD4F19
:100F5000859194918FB7F894EC91E22BEC938FBF2D
:100F600008959CB59F7D9CBD9CB5937F9CBD9CB511
:100F70009C7F9CBD9DB591609DBD682F8091200395
:100F80000E94A7038FE090E00197F1F7089581E0B8
:100F90000C94B10780E00C94B107EF92FF920F938D
:100FA0001F93CF93DF9300D01F92CDB7DEB7162FDC
:100FB0004A837B8389830E94CA0789818F718062FB
:100FC0000E94F405082FE12E7B81F72E4A81140F31
:100FD0001E1531F0F70181917F010E94F405F8CFD1
:100FE0000E94C707802F0F900F900F90DF91CF9135
:100FF0001F910F91FF90EF900895CF93DF931F9271
:10100000CDB7DEB789830E94CA0789810E94F405A3
:1010100089830E94C70789810F90DF91CF9108953E
:1010200081EE0C94FD071F93CF93DF9300D0CDB7D3
:10103000DEB76A8389830E94CA0789818F718062C3
:101040000E94F405182F6A81862F0E94F4050E94E1
:10105000C707812F0F900F90DF91CF911F910895B7
:10106000682F80911F039091200389130C94A7038C
:101070000895DF92EF92FF920F931F93CF93DF9328
:101080001F92CDB7DEB7F82E20912203D62E261759
:1010900008F4D22E80912303811103C0E22EED18B3
:1010A00001C0E12C99830E94CA0780EA0E94F405DE
:1010B0000F2D9981192FFD0CF01631F0F801819157
:1010C0008F010E94F405F8CFEE2029F080E00E9405
:1010D000F405EA94F9CF0E94C70781E00E94300826
:1010E0008FEF0E94FD078073D9F380E00E943008E3
:1010F00060E787E00E94130884FF04C00E94100884
:1011000080E001C081E00F90DF91CF911F910F919E
:10111000FF90EF90DF900895CF93DF931F92CDB7AC
:10112000DEB789830E94CA0789818F710E94F40506
:101130008FEF0E94F40589830E94C70789810F9071
:10114000DF91CF91089580E00E94300880912A03BA
:1011500090912B038230910538F0880F991F880FEA
:10116000991F05970197F1F78DE10E948C0881FF87
:1011700010C080912A0390912B038230910538F0A2
:10118000880F991F880F991F05970197F1F70E9403
:10119000100880E00E948C08682F6E7F80E00E941B
:1011A000130882E00E948C08E7E7F2E0E49161E036
:1011B00070E001C0660FEA95EAF7682B82E00C94B4
:1011C00013080F931F93CF93DF93CDB7DEB7289704
:1011D0000FB6F894DEBF0FBECDBF85EC898382ECDD
:1011E0008A838B838C838D831E821F8218860FE1F6
:1011F00013E0F8014285BE016F5F7F4F8AE00E94D5
:10120000CD07F8014285BE016F5F7F4F80E10E94EC
:10121000CD07F801638181E10E94130828960FB67B
:10122000F894DEBF0FBECDBFDF91CF911F910F911C
:101230000895009769F0FC0101900020E9F73197CB
:10124000AF01481B590BBC0182E892E00C948E015F
:1012500080E090E0089580E00E948C0881FD0EC03F
:1012600080E00E948C08682F626080E00E94130872
:1012700065E070E080E090E00C948D0408950E9499
:101280002B0980E00E948C08682F616080E00E943A
:10129000130860E787E00E94130881E00E9430088D
:1012A00080912403882341F04091290364E273E094
:1012B0008AE00E94CD0712C082E00E948C08E7E716
:1012C000F2E0E49121E030E001C0220FEA95EAF774
:1012D0002095622F682382E00E9413088DE10E940E
:1012E0008C0881FD0C94100808950F931F93CF93E1
:1012F000DF93CDB7DEB728970FB6F894DEBF0FBEE9
:10130000CDBF85EC898382EC8A838B838C838D832C
:101310001E821F8218860FE113E0F801428550E01B
:10132000BE016F5F7F4F84E293E00E940A11E1E704
:10133000F2E08491F8014285BE016F5F7F4F0E9409
:10134000CD07EBE6F2E08491F80163810E94130877
:1013500082E00E948C08E7E7F2E0E49161E070E04F
:1013600001C0660FEA95EAF7682B82E00E94130835
:1013700028960FB6F894DEBF0FBECDBFDF91CF9198
:101380001F910F910895EF92FF920F931F93CF93A8
:10139000DF931F92CDB7DEB7E42E9F938F9385E640
:1013A00092E09F938F9369830E94BA146981E60E3D
:1013B0000F900F900F900F900DE512E06E1591F0C9
:1013C000FF24F394F60E862F0E948C081F928F93B1
:1013D0001F930F930E94BA140F900F900F900F90CD
:1013E0006F2DECCF8AE592E09F938F930E94BA1401
:1013F0000F900F900F90DF91CF911F910F91FF9061
:10140000EF9008952F923F924F925F926F927F924A
:101410008F929F92AF92BF92CF92DF92EF92FF9204
:101420000F931F93CF93DF931F92CDB7DEB7562E46
:10143000342E6DB67EB69F938F9384E592E09F9392
:101440008F930E94BA14350C0F900F900F900F904D
:1014500080E5C82E82E0D82E9BE4A92E92E0B92E1A
:10146000531409F44EC08DB69EB690912903092FEE
:1014700010E02DB73EB7201B310B0FB6F8943EBFDE
:101480000FBE2DBFEDB7FEB731967F012224239406
:10149000250C99830E94CA07852D8F710E94F4053F
:1014A000270199819E0D941549F08FEF99830E9431
:1014B000F405F20181932F019981F5CF0E94C707AE
:1014C000DF92CF920E94BA140E0D1F1D0F900F9045
:1014D000015011090E151F0568F0F80180811F9257
:1014E0008F93BF92AF920E94BA140F900F900F90FB
:1014F0000F90EECF0FB6F8949EBE0FBE8DBE522C4D
:10150000AFCF88E492E09F938F930E94BA140F901C
:101510000F900FB6F8947EBE0FBE6DBE0F90DF9198
:10152000CF911F910F91FF90EF90DF90CF90BF90E0
:10153000AF909F908F907F906F905F904F903F9073
:101540002F9008950F931F93CF938C0186E00E94F4
:101550008C08C82FC77D0230110531F4C0628BE9B9
:1015600090E0A0E0B0E00DC00130110529F085E564
:1015700090E0A0E0B0E005C0C86081E490E0A0E0A9
:10158000B0E080932A0390932B03A0932C03B09395
:101590002D036C2F86E00E94130886E00E948C08C1
:1015A00091E08C1390E0892FCF911F910F910895B6
:1015B000CF93DF93CDB7DEB7CD54D1090FB6F894F2
:1015C000DEBF0FBECDBF789484B5826084BD84B584
:1015D000816084BD85B5826085BD85B5816085BD2E
:1015E00080916E00816080936E00109281008091E6
:1015F000810082608093810080918100816080936E
:101600008100809180008160809380008091B10092
:1016100084608093B1008091B00081608093B000BD
:1016200080917A00846080937A0080917A00826051
:1016300080937A0080917A00816080937A00809113
:101640007A00806880937A001092C100E091920243
:10165000F091930282E08083E0918E02F0918F02FC
:101660001082E0919002F09191028FEC80831092B1
:101670009A02E0919602F091970286E08083E091D1
:101680009402F0919502808180618083E0919402C0
:10169000F0919502808188608083E0919402F091BE
:1016A0009502808180688083E0919402F091950298
:1016B00080818F7D808360E070E083ED92E00E9406
:1016C0006F1480911F039091200389130E94920749
:1016D0008091200390911F0398130E9492071FB7D7
:1016E000F89480919401811124C0EBE9F2E0849197
:1016F000EFEAF2E09491E82FF0E0EE0FFF1FE957D8
:10170000FD4FA591B491EC91E92321F461E08AE0C9
:101710000E94A7038AE00E9492078CB580618CBD6D
:101720008CB580648CBD8DE00E9492078BE00E9496
:101730009207809194018F5F809394011FBF80E096
:101740000E94300881E00E94B10765E070E080E00F
:1017500090E00E948D046CE080E00E9413086FE529
:1017600084E00E94130882E090E00E94A20A88238D
:1017700019F081E08093210380E090E00E94A20AAA
:101780000E94CA0780E50E94F40583E70E94F405E1
:101790000E94C70760E08DE10E94130860E08CE1C1
:1017A0000E94130860E787E00E9413086CE485E05C
:1017B0000E94130882EE0E94FD070E9410080E94FA
:1017C0002B0980E00E948C08682F6E7F80E00E94C9
:1017D00013086FE284E00E94130886E00E948C08E0
:1017E000682F676086E00E94130860E085E00E9431
:1017F000130882E090E00E94A20A0E9475090E94EC
:101800003F098FEF0E94FD07282F30E0982F91703D
:101810001F929F9335952795277033273F932F93DA
:1018200084FB992790F91F929F9385FB992790F944
:101830001F929F9386FB992790F91F929F931F9267
:101840008F9382E291E09F938F930E94BA1442E0BB
:101850006AE08DE192E00E94020A44E06CE080E1DF
:1018600092E00E94C30941E060E187E092E00E94BB
:10187000020A46E061E18CEF91E00E94C30941E079
:1018800061E085EF91E00E94C30941E062E08BEEE8
:1018900091E00E94C30941E065E084EE91E00E947E
:1018A000C30941E066E08BED91E00E94C30941E08D
:1018B00060E083ED91E00E94C30942E06CE185ECB9
:1018C00091E00E94C30986E00E948C0888720FB6DE
:1018D000F894DEBF0FBECDBF803241F021E090E032
:1018E000883009F020E0E22FF92F02C0E2E0F0E0BA
:1018F000EE0FFF1FE154FE4F859194919F938F93BC
:101900008DEA91E09F938F930E94BA14E091210396
:10191000F0E0EE0FFF1FE755FE4F859194919F93E6
:101920008F938AE991E09F938F930E94BA1480E08D
:101930000E948C08182F81E00E948C080FB6F89442
:10194000DEBF0FBECDBF13FD02C0882329F012FDFC
:1019500006C0E1E0F0E005C0E0E0F0E002C0E2E057
:10196000F0E0EE0FFF1FEC56FE4F859194919F9390
:101970008F9381E891E09F938F930E94BA1486E041
:101980000E948C088670E82FF0E0E758FE4F8591A2
:1019900094919F938F9388E691E09F938F930E94F9
:1019A000BA140E94E1080E94A30863E186E191E075
:1019B0000E94390863E186E191E00E94390863E101
:1019C00086E191E00E94390863E186E191E00E949E
:1019D000390886E00E94920785E00E94920784E021
:1019E0000E94920783E00E9492078EE00E94920775
:1019F0008FE00E94920780E10E94920781E10E949D
:101A0000920782E10E94920761E08EE00E94A703A4
:101A100068EE73E080E090E00E948D0460E08EE06C
:101A20000E94A7030FB6F894DEBF0FBECDBF2E01F4
:101A3000F2E24F0E511C9E012C5B3F4F28963FAFA8
:101A40002EAF28971E0132E4230E311C3AE0832E7C
:101A5000912CA12CB12C0E9475090E943F0987E1AD
:101A60000E948C0880FF3AC036C00E94C70760E71A
:101A700087E00E94130881E090E02A961FAE1EAE18
:101A80002A97F80121918F012E3221F42A969FAFD7
:101A90008EAF2A9701968132910599F7C12CD12CEE
:101AA0008E010F5F1F4F2A962EAD3FAD2A97C216AB
:101AB000D3068CF4D601F201EC0DFD1D808180343B
:101AC00009F068C0FFEFCF1ADF0AF201EC0DFD1D2F
:101AD0008081813391F10E947B02BDCF80E2D201EF
:101AE0001D928A95E9F780912203803208F450C252
:101AF00090E2C92E90912303911103C0D82EDC18D7
:101B000001C0D12C0E94CA0781E60E94F40582011F
:101B10007201CA94BFEFCB1639F08FEF0E94F40523
:101B2000D7018D937D01F5CFFD2CFF2009F49DCFCA
:101B30008FEF0E94F405FA94F8CF2A962EAD3FADB0
:101B40002A97213231053CF698E0D8011D929A95EA
:101B5000E9F7F1011182108280833F922F92A9E26E
:101B6000B1E0BF93AF931F930F930E9423110E9484
:101B7000E1080E94A3088BE193E00197F1F764E08C
:101B8000C8010E9439080F900F900F900F900F908E
:101B90000F90FAC18C3209F0F7C1E4E2F0E0EC0FEB
:101BA000FD1FEC0DFD1D208185E290E08C0F9D1F37
:101BB0008C0D9D1DFC01E080F3E0CF0ED11C83E273
:101BC00090E08C0F9D1FA80FB91F8C91833609F0F0
:101BD000DEC025962FAF25972696EFAE26973F922B
:101BE0002F92AFE2B1E0BF93AF932896FFAD289755
:101BF000FF9327962FAD27972F930E944611D1016F
:101C00002D913C91032E000C440B550B0F900F901F
:101C10000F900F900F900F9057FF3EC0E0918202FF
:101C2000F09183020190F081E02D6DE282E892E074
:101C30002B962FAF2B972C963FAF2C972D964FAF0F
:101C40002D972E965FAF2E9709952B962FAD2B973C
:101C50002C963FAD2C972D964FAD2D972E965FADC0
:101C60002E9750954095309521953F4F4F4F5F4FA0
:101C700019A2FE01B1967F01CA01B901A501940123
:101C80000E941810605DD7016E937D01211531050A
:101C90004105510589F713C019A2FE01B1967F01D4
:101CA000CA01B901A50194010E941810605DD70115
:101CB0006E937D01211531054105510589F7C70155
:101CC0000E94190982E391E00E941909D101ED9166
:101CD000FC91E632F10508F057C1EC5CFF4F0C9423
:101CE0003A1085E391E00E94190982E391E00E9495
:101CF000190965E371E03EC068E371E03BC06CE345
:101D000071E038C060E471E035C064E471E032C075
:101D100068E471E02FC06CE471E02CC060E571E014
:101D200029C064E571E026C068E571E023C06CE578
:101D300071E020C060E671E01DC064E671E01AC089
:101D400068E671E017C06CE671E014C060E771E00E
:101D500011C064E771E00EC069E771E00BC06EE787
:101D600071E008C062E871E005C066E871E002C099
:101D70006BE871E0C8010E940303C8010E94FB05E3
:101D8000C8010E94FE0200C160E971E0F3CF0E2C91
:101D9000000CFF08B0E3EB1AF108E22F220FFF0B53
:101DA000F197E930F10508F0EFC0E65AFF4F0C94C7
:101DB0003A106090A5017090A6016E147F0451F452
:101DC00061E0EF2809F060E08EE00E94A703662D35
:101DD0008EE0CFC06E2D8EE00E94A703F092A60188
:101DE000E092A501D1C06090A3017090A4016E148F
:101DF0007F0451F461E0EF2809F060E08FE00E9479
:101E0000A703662D8FE0B5C06E2D8FE00E94A7035B
:101E1000F092A401E092A301B7C06090A10170907C
:101E2000A2016E147F0451F461E0EF2809F060E034
:101E300080E10E94A703662D80E19BC06E2D80E1AA
:101E40000E94A703F092A201E092A1019DC06090C0
:101E50009F017090A0016E147F0451F461E0EF289F
:101E600009F060E081E10E94A703662D81E181C055
:101E70006E2D81E10E94A703F092A001E0929F01E4
:101E800083C060909D0170909E016E147F0451F498
:101E900061E0EF2809F060E082E10E94A703662D6F
:101EA00082E167C06E2D82E10E94A703F0929E013D
:101EB000E0929D0169C060909B0170909C016E143E
:101EC0007F0451F461E0EF2809F060E083E00E94B4
:101ED000A703662D83E04DC06E2D83E00E94A7030B
:101EE000F0929C01E0929B014FC06090990170902C
:101EF0009A016E147F0451F461E0EF2809F060E06C
:101F000084E00E94A703662D84E033C06E2D84E038
:101F10000E94A703F0929A01E092990135C0609067
:101F20009701709098016E147F0451F461E0EF28DE
:101F300009F060E085E00E94A703662D85E019C0E6
:101F40006E2D85E00E94A703F0929801E092970120
:101F50001BC060909501709096016E147F0461F42F
:101F600061E0EF2809F060E086E00E94A703662D9B
:101F700086E00E94A70308C06E2D86E00E94A7039A
:101F8000F0929601E0929501EFEFCE1ADE0A8BCD2A
:101F9000C82EB0CDE2E8F2E01382128288EE93E020
:101FA000A0E0B0E084839583A683B7838AE091E0C4
:101FB0009183808385EC90E09587848784EC90E022
:101FC0009787868780EC90E0918B808B81EC90E006
:101FD000938B828B82EC90E0958B848B86EC90E0E7
:101FE000978B868B118E128E138E148EEFE1F3E099
:101FF00089E080838AE08183128280E28383148275
:1020000085E0828715820895AA1BBB1B51E107C09A
:10201000AA1FBB1FA617B70710F0A61BB70B881F78
:10202000991F5A95A9F780959095BC01CD01089507
:10203000A1E21A2EAA1BBB1BFD010DC0AA1FBB1FCC
:10204000EE1FFF1FA217B307E407F50720F0A21B3E
:10205000B30BE40BF50B661F771F881F991F1A94AB
:1020600069F760957095809590959B01AC01BD01D5
:10207000CF010895EE0FFF1F0590F491E02D099414
:10208000A0E0B0E0E6E4F0E10C94BE18EC010097AB
:1020900021F4CB010E94CE16B8C0FC01E60FF71F59
:1020A0009C0122503109E217F30708F4ACC0D901B2
:1020B0000D911C91119706171707B0F00530110507
:1020C00008F49FC0C80104978617970708F499C0C1
:1020D00002501109061B170B019311936D937C930A
:1020E000CF010E9463178DC05B01A01AB10A4C0199
:1020F000800E911EA0913703B091380340E050E06C
:10210000E12CF12C109709F44AC0A815B905D1F5B6
:102110006D907C901197630182E0C80ED11CCA14A7
:10212000DB0480F1A3014A195B096A0182E0C80E51
:10213000D11C1296BC9012971396AC91B5E0CB16B9
:10214000D10440F0B282A38351834083D9016D93BF
:102150007C930AC00E5F1F4FC301800F911FF901CE
:1021600091838083EB2DFA2FE114F10431F0D70134
:102170001396FC93EE93129744C0F0933803E093C8
:1021800037033FC08D919C9111974817590708F468
:10219000AC017D0112960D90BC91A02DB3CF809122
:1021A00035039091360388159905E1F446175707D2
:1021B000C8F48091000190910101009741F48DB71E
:1021C0009EB74091040150910501841B950BE817BF
:1021D000F907C8F4F0933603E0933503F9017183EE
:1021E00060830FC0CB010E94CE167C01009759F08E
:1021F000A801BE010E940A11CE010E946317C70107
:1022000004C0CE0102C080E090E0CDB7DEB7EEE0C2
:102210000C94DA18FB01DC0102C001900D924150D0
:102220005040D8F70895FB01DC018D910190801991
:102230000110D9F3990B0895FB01DC0101900D9277
:102240000020E1F70895AEE0B0E0E9E2F1E10C949E
:10225000C8180D891E8986E08C831A8309838FEF45
:102260009FE79E838D83AE01475E5F4F6F89788DB8
:10227000CE0101960E94E0142F813885F801E20F0B
:10228000F31F10822E96E4E00C94E418AEE0B0E068
:10229000ECE4F1E10C94CA1885E08C838B899C896D
:1022A0009A838983AE01495E5F4F6D897E89CE0135
:1022B00001960E94DF122E96E2E00C94E61820FDB3
:1022C00009C0FC0123FD05C022FF02C073836283A5
:1022D00051834083089544FD10C046FD10C0DB01CA
:1022E000FC01AA0FBB1FEE1FFF1F1094D1F76A0F4E
:1022F0007B1F8E1F9F1F31E003C033E001C034E01D
:10230000660F771F881F991F3150D1F7620F711D1B
:10231000811D911D08950F931F93CF93DF938C011F
:10232000C8010E941814EC0197FD08C00E94FB1719
:10233000892BB1F7B801CE010E945614CE01DF916E
:10234000CF911F910F910895A1E0B0E0EAEAF1E189
:102350000C94C0188C01C62E7A0129830E9418148F
:10236000AC01552729814B32510521F04D325105E1
:1023700069F42068CA94C11002C080E076C0C80128
:1023800029830E941814298197FDF7CF322F3D7FB2
:10239000D32E322F307349F5803339F5BB24BA94EC
:1023A000BC0C09F44EC0C80129830E94181429816D
:1023B00097FD47C0382F3F7D383569F48D2D8264F5
:1023C000D82ECA94CA94CC20E1F1C8010E941814F6
:1023D00097FF0BC036C026FF04C02D2D2260D22EE1
:1023E00003C03D2D3261D32ECB2C812C912C540176
:1023F00020ED280F283080F0D4FE04C0B8010E94E0
:1024000056141CC02A3040F0D6FEF8CF2F7D3FEE88
:10241000320F363098F727504D2DC501B4010E9478
:102420006B114B015C018D2D8260D82ECA94CC209B
:1024300059F0C8010E94181497FFDACFD1FC04C0EC
:102440009CCF812C912C5401D7FE08C0B094A0944D
:1024500090948094811C911CA11CB11C2D2DB50160
:10246000A401C7010E945F1181E02196ECE00C9469
:10247000DC18A1E2B0E0EFE3F2E10C94BE185C01DD
:102480007A01CE0101966C0180E2F60111928A95E3
:10249000E9F7F501838040E050E0912C712C70E069
:1024A000A1E0B0E0F90183FC859183FE81918F0169
:1024B000982F9F01811103C080E090E07CC08E3591
:1024C00019F44115510549F1E72FF0E0E417F5073C
:1024D0003CF48D3559F18D3219F4772001F103C0A8
:1024E000711001C0982E892F869586958695860154
:1024F000080F111D892F87703D0101C0660C8A9558
:10250000EAF7F801808186298083991559F0991599
:1025100010F49F5FE8CF9150E6CF71E004C07724BC
:10252000739401C0712C4F5F5F4FBCCF772019F0BF
:102530008E8180628E83711103C09924939416C09A
:10254000F6019E012F5D3F4F808180958193E217B8
:10255000F307D1F7F2CFE114F10429F0F7018083FA
:10256000C70101967C016150912CF9F0C50169A366
:102570000E94181469A197FD16C0282F269526954C
:102580002695F601E20FF11D208130E0AC01477085
:10259000552702C0359527954A95E2F720FDDBCFF8
:1025A000B5010E945614911087CFE114F10411F087
:1025B000F7011082C801A196EEE00C94DA184F9250
:1025C0005F927F928F929F92AF92BF92CF92DF9253
:1025D000EF92FF920F931F93CF93DF931F92CDB78C
:1025E000DEB76C012B015A01FC0117821682712C97
:1025F000F601F380F201F3FC8591F3FE8191382F0F
:102600002F01882309F4F3C090E039830E94FB175F
:102610003981892B21F0C6010E948B11E9CF353217
:1026200041F4F201F3FC3591F3FE31912F01353283
:1026300069F4C60139830E941814398197FDD5C009
:102640003817B1F2B6010E945614D1C03A3239F4AB
:10265000F3FC3591F3FE31912F0151E001C050E0C0
:10266000420110E020ED230F2A3090F45260612FD8
:1026700070E080E090E040E259830E946B11162FD9
:10268000F401F3FC3591F3FE31914F015981EACF0A
:10269000052F232F240151FF03C0111102C0A7C031
:1026A0001FEF383619F03C3659F011C0F401F3FC35
:1026B0002591F3FE21912F01283649F4052F08605A
:1026C0000460F201F3FC2591F3FE21912F012223F6
:1026D00009F48DC0622F70E089EB92E029830E949B
:1026E0000D142981892B09F482C000FD07C0F50172
:1026F000E080F180C50102965C0102C0E12CF12C62
:102700002E3651F4F6014681578160E070E0202FAB
:10271000C7010E945F116CCF233691F401FF11E0D5
:10272000C6010E94181497FD60C0E114F10429F05D
:10273000F7018083C70101967C01115089F751C0D0
:102740002B3559F49201A701612FC6010E9439125D
:102750002C01892B09F045C03FC0C60129830E9486
:102760008B11298197FD41C02F3659F128F4243669
:1027700031F1293649F127C0233769F02537F9F0BF
:1027800022C0E114F10429F0F7018082C70101960B
:102790007C01115071F0C6010E9418144C0197FD84
:1027A00008C00E94FB17892B61F3B601C4010E9487
:1027B0005614E114F104A9F0F701108212C000626E
:1027C00003C0006101C00064202FA701612FC60172
:1027D0000E94A411811105C0F6018381807329F440
:1027E00006C000FD05CF739403CF772019F0872D25
:1027F00090E002C08FEF9FEF0F90DF91CF911F917C
:102800000F91FF90EF90DF90CF90BF90AF909F908F
:102810008F907F905F904F900895FC010590061671
:1028200021F00020D9F7C00108953197CF01089514
:10283000CF93DF93EC012B8120FF33C026FF0AC02A
:102840002F7B2B838E819F8101969F838E838A812C
:1028500090E029C022FF0FC0E881F9818081082E15
:10286000000C990B009719F420622B831AC0319643
:10287000F983E8830EC0EA85FB85099597FF09C0B7
:102880002B81019611F080E201C080E1822B8B83C5
:1028900008C02E813F812F5F3F4F3F832E839927B2
:1028A00002C08FEF9FEFDF91CF910895FB0123814D
:1028B00020FF12C026FD10C08F3F3FEF930761F04D
:1028C00082832F7D20642383268137812150310923
:1028D00037832683992708958FEF9FEF08950F93ED
:1028E0001F93CF93DF93009731F46115710519F4AD
:1028F00080E090E03AC08B01EC016EE070E081E096
:1029000090E00E94B216FC01892B91F380E883834A
:102910000115110571F01387028781E88383809187
:102920002F0390913003892B21F4F0933003E0932F
:102930002F032097C9F0D187C0878381826083836A
:102940008091310390913203892B71F4F09332031B
:10295000E09331038091330390913403892B21F468
:10296000F0933403E0933303CF01DF91CF911F91B4
:102970000F910895A0E0B0E0E0ECF4E10C94C818E9
:10298000AE01495F5F4FDA016D917D91AD010FE2BC
:1029900013E0F80182819381DC0113962C91139747
:1029A000286013962C930E94E014D8011296ED91A2
:1029B000FC9113972381277F2383E4E00C94E41890
:1029C000ACE0B0E0E6EEF4E10C94BA187C016B01E7
:1029D0008A01FC0117821682838181FFBDC1CE016D
:1029E00001964C01F7019381F60193FD859193FFC8
:1029F00081916F01882309F4ABC1853239F493FDCD
:102A0000859193FF81916F01853229F4B70190E0A0
:102A10000E942118E7CF512C312C20E02032A0F465
:102A20008B3269F030F4803259F0833269F42061DE
:102A30002CC08D3239F0803339F4216026C02260F9
:102A4000246023C0286021C027FD27C030ED380F47
:102A50003A3078F426FF06C0FAE05F9E300D11246C
:102A6000532E13C08AE0389E300D1124332E20627D
:102A70000CC08E3221F426FD6BC1206406C08C365A
:102A800011F4206802C0883641F4F60193FD859167
:102A900093FF81916F018111C1CF982F9F7D955434
:102AA000933028F40C5F1F4FFFE3F9830DC083368A
:102AB00031F0833771F0833509F05BC022C0F80133
:102AC000808189830E5F1F4F44244394512C54010D
:102AD00015C03801F2E06F0E711CF801A080B180C2
:102AE00026FF03C0652D70E002C06FEF7FEFC501C8
:102AF0002C870E9416182C0183012C852F77222EFB
:102B000017C03801F2E06F0E711CF801A080B1808F
:102B100026FF03C0652D70E002C06FEF7FEFC50197
:102B20002C870E9404182C012C852068222E8301FA
:102B300023FC1BC0832D90E048165906B0F4B70162
:102B400080E290E00E9421183A94F4CFF50127FC2E
:102B5000859127FE81915F01B70190E00E942118C5
:102B600031103A94F1E04F1A51084114510471F7B1
:102B7000E5C0843611F0893639F5F80127FF07C022
:102B800060817181828193810C5F1F4F08C06081D9
:102B90007181072E000C880B990B0E5F1F4F2F764B
:102BA000722E97FF09C090958095709561957F4F23
:102BB0008F4F9F4F2068722E2AE030E0A4010E94C0
:102BC0005918A82EA81844C0853729F42F7EB22E94
:102BD0002AE030E025C0F22FF97FBF2E8F36C1F0FA
:102BE00018F4883579F0B4C0803719F0883721F0AF
:102BF000AFC02F2F2061B22EB4FE0DC08B2D84608C
:102C0000B82E09C024FF0AC09F2F9660B92E06C0B7
:102C100028E030E005C020E130E002C020E132E0F1
:102C2000F801B7FE07C060817181828193810C5FDA
:102C30001F4F06C06081718180E090E00E5F1F4FE2
:102C4000A4010E945918A82EA818FB2DFF777F2EEB
:102C500076FE0BC0372D3E7FA51450F474FE0AC0DB
:102C600072FC08C0372D3E7E05C0BA2C372D03C03C
:102C7000BA2C01C0B52C34FF0DC0FE01EA0DF11DC8
:102C80008081803311F4397E09C032FF06C0B394CD
:102C9000B39404C0832F867809F0B39433FD13C036
:102CA00030FF06C05A2CB31418F4530C5B18B32C25
:102CB000B31468F4B70180E290E03C870E942118C9
:102CC000B3943C85F5CFB31410F43B1801C0312CFC
:102CD00034FF12C0B70180E390E03C870E942118C6
:102CE0003C8532FF17C031FD03C088E790E002C089
:102CF00088E590E0B7010CC0832F867859F031FF4A
:102D000002C08BE201C080E237FD8DE2B70190E0A6
:102D10000E942118A51438F4B70180E390E00E94C6
:102D200021185A94F7CFAA94F401EA0DF11D80817D
:102D3000B70190E00E942118A110F5CF332009F4CB
:102D400051CEB70180E290E00E9421183A94F6CF6C
:102D5000F7018681978102C08FEF9FEF2C96E2E109
:102D60000C94D6180F931F93CF93DF93869F800107
:102D7000879F100D969F100D1124C8010E94CE163A
:102D8000EC01009729F0A80160E070E00E940F18A4
:102D9000CE01DF91CF911F910F910895CF93DF93D3
:102DA0008230910510F482E090E0E0913703F091D9
:102DB000380320E030E0C0E0D0E0309711F14081EE
:102DC000518148175907C0F04817590761F48281AB
:102DD0009381209719F09B838A832BC090933803AB
:102DE0008093370326C02115310519F04217530788
:102DF00018F49A01BE01DF01EF010280F381E02D9A
:102E0000DCCF2115310509F1281B390B24303105A0
:102E100090F412968D919C9113976115710521F094
:102E2000FB019383828304C090933803809337031C
:102E3000FD01329644C0FD01E20FF31F819391938F
:102E4000225031092D933C933AC0209135033091A3
:102E50003603232B41F4209102013091030130937A
:102E60003603209335032091000130910101211593
:102E7000310541F42DB73EB7409104015091050151
:102E8000241B350BE0913503F0913603E217F3076D
:102E9000A0F42E1B3F0B2817390778F0AC014E5FCA
:102EA0005F4F2417350748F04E0F5F1F50933603CE
:102EB000409335038193919302C0E0E0F0E0CF01AD
:102EC000DF91CF9108950F931F93CF93DF930097D6
:102ED00009F48CC0FC0132971382128200913703EF
:102EE000109138030115110581F420813181820F81
:102EF000931F20913503309136032817390779F550
:102F0000F0933603E093350371C0D80140E050E000
:102F1000AE17BF0750F412962D913C911397AD0157
:102F20002115310509F1D901F3CF9D01DA01338370
:102F3000228360817181860F971F8217930769F43E
:102F4000EC0128813981260F371F2E5F3F4F3183D7
:102F500020838A819B8193838283452B29F4F0937C
:102F60003803E093370342C01396FC93EE93129715
:102F7000ED01499159919E01240F351FE217F30786
:102F800071F480819181840F951F029611969C9314
:102F90008E938281938113969C938E931297E0E097
:102FA000F0E0D80112968D919C911397009719F03B
:102FB000F8018C01F6CF8D919C9198012E5F3F4FC7
:102FC000820F931F2091350330913603281739075C
:102FD00069F4309729F4109238031092370302C035
:102FE000138212821093360300933503DF91CF9141
:102FF0001F910F91089591110C94B718803219F018
:1030000089508550C8F70895FC01059061507040C3
:103010000110D8F7809590958E0F9F1F0895DC01C1
:1030200001C06D9341505040E0F70895FC0161509C
:10303000704001900110D8F7809590958E0F9F1FDA
:1030400008950F931F93CF93DF93FB01238121FDFD
:1030500003C08FEF9FEF28C022FF16C04681578123
:10306000248135814217530744F4A081B1819D0129
:103070002F5F3F4F318320838C93268137812F5FD1
:103080003F4F3783268310C0EB01092F182F008490
:10309000F185E02D0995892BE1F68E819F810196BE
:1030A0009F838E83812F902FDF91CF911F910F915E
:1030B0000895FA01AA27283051F1203181F1E894CE
:1030C0006F936E7F6E5F7F4F8F4F9F4FAF4FB1E01B
:1030D0003ED0B4E03CD0670F781F891F9A1FA11D16
:1030E000680F791F8A1F911DA11D6A0F711D811D17
:1030F000911DA11D20D009F468943F912AE0269FDC
:1031000011243019305D3193DEF6CF010895462F3A
:103110004770405D4193B3E00FD0C9F7F6CF462F1B
:103120004F70405D4A3318F0495D31FD4052419384
:1031300002D0A9F7EACFB4E0A69597958795779541
:103140006795BA95C9F700976105710508959B01C8
:10315000AC010A2E06945795479537952795BA9551
:10316000C9F7620F731F841F951FA01D089599272B
:10317000882708952F923F924F925F926F927F928D
:103180008F929F92AF92BF92CF92DF92EF92FF9277
:103190000F931F93CF93DF93CDB7DEB7CA1BDB0B23
:1031A0000FB6F894DEBF0FBECDBF09942A883988C8
:1031B00048885F846E847D848C849B84AA84B984CF
:1031C000C884DF80EE80FD800C811B81AA81B981DB
:1031D000CE0FD11D0FB6F894DEBF0FBECDBFED01EF
:0631E0000895F894FFCFF2
:1031E6000000390380000000000012028E01DB019E
:1031F600B901CD015902546869732069732061636E
:10320600747561746F7220310073657425730025BF
:1032160064000D0A004F4E004F46460054313700F9
:1032260054313800543139005432300054323100B0
:1032360054323200543233005432340054323500A2
:103246005432360054323700543238005432390082
:10325600543330006175746F00636F6F6C00647275
:10326600790066616E0068656174004849474800E8
:043276004C4F570062
:107800000C94343C0C94513C0C94513C0C94513CE1
:107810000C94513C0C94513C0C94513C0C94513CB4
:107820000C94513C0C94513C0C94513C0C94513CA4
:107830000C94513C0C94513C0C94513C0C94513C94
:107840000C94513C0C94513C0C94513C0C94513C84
:107850000C94513C0C94513C0C94513C0C94513C74
:107860000C94513C0C94513C11241FBECFEFD8E036
:10787000DEBFCDBF11E0A0E0B1E0ECE9FFE702C060
:1078800005900D92A230B107D9F712E0A2E0B1E065
:1078900001C01D92AD30B107E1F70E942D3D0C945F
:1078A000CC3F0C94003C982F959595959595959582
:1078B000905D8F708A307CF0282F295A8091C0000B
:1078C00085FFFCCF9093C6008091C00085FFFCCF60
:1078D0002093C6000895282F205DF0CF982F809127
:1078E000C00085FFFCCF9093C6000895EF92FF92F1
:1078F0000F931F93EE24FF2487018091C00087FD22
:1079000017C00894E11CF11C011D111D81E4E8164B
:1079100082E4F8068FE0080780E0180770F3E09132
:107920000401F091050109958091C00087FFE9CF1E
:107930008091C6001F910F91FF90EF9008950E94D3
:10794000763C982F8091C00085FFFCCF9093C600B5
:1079500091362CF490330CF09053892F089597555D
:10796000892F08951F930E949F3C182F0E949F3CCF
:107970001295107F810F1F9108951F93182F882350
:1079800021F00E94763C1150E1F71F9108951F935A
:10799000182F0E94763C803249F0809103018F5F5E
:1079A000809303018530C1F01F9108958091C0003C
:1079B00085FFFCCF84E18093C6008091C00085FFE5
:1079C000FCCF1093C6008091C00085FFFCCF80E102
:1079D0008093C6001F910895E0910401F091050184
:1079E00009951F9108950E94763C803241F0809164
:1079F00003018F5F80930301853081F008958091AA
:107A0000C00085FFFCCF84E18093C6008091C00058
:107A100085FFFCCF80E18093C6000895E0910401CA
:107A2000F09105010995089540E951E08823A1F0FE
:107A30002D9A28EE33E0FA013197F1F721503040CA
:107A4000D1F72D9828EE33E0FA013197F1F7215064
:107A50003040D1F7815061F708953F924F925F9285
:107A60006F927F928F929F92AF92BF92CF92DF924E
:107A7000EF92FF920F931F93CF93DF93000080E16B
:107A80008093C4001092C50088E18093C10086E015
:107A90008093C2005098589A259A81E00E94143D24
:107AA00024E1F22E9EE1E92E85E9D82E0FE0C02ECA
:107AB00010E1B12EAA24A394B1E49B2EA6E58A2E50
:107AC000F2E57F2EE0E26E2E79E4572E63E5462E36
:107AD00050E5352E0E94763C8033B1F18133B9F107
:107AE000803409F46FC0813409F476C0823409F41B
:107AF00085C0853409F488C0803531F1823521F1A3
:107B0000813511F1853509F485C0863509F48DC0BC
:107B1000843609F496C0843709F403C1853709F423
:107B200072C1863709F466C0809103018F5F80932C
:107B30000301853079F6E0910401F0910501099582
:107B40000E94763C803351F60E94F33CC3CF0E94E2
:107B5000763C803249F78091C00085FFFCCFF092DF
:107B6000C6008091C00085FFFCCF9092C600809136
:107B7000C00085FFFCCF8092C6008091C00085FFC9
:107B8000FCCF7092C6008091C00085FFFCCF609250
:107B9000C6008091C00085FFFCCF5092C600809146
:107BA000C00085FFFCCF4092C6008091C00085FFD9
:107BB000FCCF3092C6008091C00085FFFCCFB09210
:107BC000C60088CF0E94763C863808F4BDCF0E945C
:107BD000763C0E94F33C7ECF0E94763C803809F4CC
:107BE0009CC0813809F40BC1823809F43CC1883942
:107BF00009F48FC080E00E94C73C6CCF84E10E94F2
:107C0000BD3C0E94F33C66CF85E00E94BD3C0E94D3
:107C1000F33C60CF0E94763C809306010E94763C44
:107C2000809307010E94F33C55CF0E94763C80333D
:107C300009F41DC183E00E94BD3C80E00E94C73C66
:107C400049CF0E94763C809309020E94763C809343
:107C5000080280910C028E7F80930C020E94763C79
:107C6000853409F415C18091080290910902892B8D
:107C700089F000E010E00E94763CF801E85FFE4FDA
:107C800080830F5F1F4F80910802909109020817AF
:107C9000190788F30E94763C803209F045CF809125
:107CA0000C0280FF01C16091060170910701660F0F
:107CB000771F7093070160930601A0910802B091AD
:107CC00009021097C9F0E8E0F1E09B01AD014E0F09
:107CD0005F1FF999FECF32BD21BD819180BDFA9A17
:107CE000F99A2F5F3F4FE417F50799F76A0F7B1F4B
:107CF00070930701609306018091C00085FFFCCF5F
:107D0000F092C6008091C00085FFFCCFB092C60003
:107D1000E1CE83E00E94C73CDDCE82E00E94C73CFA
:107D2000D9CE0E94763C809309020E94763C8093D3
:107D300008028091060190910701880F991F909386
:107D40000701809306010E94763C853409F4A6C0A1
:107D500080910C028E7F80930C020E94763C8032D0
:107D600009F0B8CE8091C00085FFFCCFF092C6002C
:107D7000609108027091090261157105B9F140E046
:107D800050E080910C02A82FA170B82FB27011C0E2
:107D9000BB2309F45CC0E0910601F0910701319624
:107DA000F0930701E09306014F5F5F4F46175707B7
:107DB000E8F4AA2369F3F999FECF209106013091E6
:107DC000070132BD21BDF89A90B58091C00085FFB2
:107DD000FCCF9093C6002F5F3F4F30930701209355
:107DE00006014F5F5F4F4617570718F38091C00099
:107DF00085FDE5CE8091C00085FFF8CFE0CE81E023
:107E00000E94C73C67CE0E94763C803209F08CCE3F
:107E10008091C00085FFFCCFF092C6008091C00029
:107E200085FFFCCFE092C6008091C00085FFFCCFAB
:107E3000D092C6008091C00085FFFCCFC092C600E2
:107E40008091C00085FFFCCFB092C60043CEE09188
:107E50000601F091070194918091C00085FFFCCF4D
:107E60009093C6009CCF80E10E94C73C33CE0E9415
:107E7000763C0E94763C182F0E94763C112309F430
:107E800083C0113009F484C08FE00E94C73C22CE29
:107E900080910C02816080930C02E5CE80910C02EF
:107EA000816080930C0259CF809107018823880F4D
:107EB000880B8A2180930B02809106019091070123
:107EC000880F991F90930701809306018091080203
:107ED00080FF09C080910802909109020196909359
:107EE000090280930802F894F999FECF1127E091D6
:107EF0000601F0910701C8E0D1E08091080290915D
:107F00000902103091F40091570001700130D9F34B
:107F100003E000935700E89500915700017001308D
:107F2000D9F301E100935700E89509901990009169
:107F3000570001700130D9F301E000935700E89534
:107F40001395103498F011270091570001700130FB
:107F5000D9F305E000935700E895009157000170B0
:107F60000130D9F301E100935700E895329602976A
:107F700009F0C7CF103011F00296E5CF112480919F
:107F8000C00085FFB9CEBCCE8EE10E94C73CA2CD19
:0C7F900085E90E94C73C9ECDF894FFCF0D
:027F9C00800063
:040000030000780081
:00000001FF
