:100000000C9432010C945A010C945A010C945A012C
:100010000C945A010C945A010C945A010C945A01F4
:100020000C945A010C945A010C945A010C945A01E4
:100030000C945A010C945A010C945A010C945A01D4
:100040000C947D030C945A010C94C5020C949F02ED
:100050000C945A010C945A010C945A010C945A01B4
:100060000C945A010C945A017B0A8C0A9D0AAE0A20
:10007000BF0ACF0ADF0AEF0A50415F4D41580050D6
:10008000415F484947480050415F4C4F570050413D
:100090005F4D494E0031362062697473003820622A
:1000A0006974730044697361626C6564006E5246E2
:1000B00032344C30312B006E524632344C303100E9
:1000C0003235304B42505300324D42505300314D87
:1000D0004250530000000008000201000003040722
:1000E000000000000000000053544154555309091A
:1000F000203D203078253032782052585F44523DE0
:1001000025782054585F44533D2578204D41585F51
:1001100052543D25782052585F505F4E4F3D257810
:100120002054585F46554C4C3D25780D0A005041EF
:1001300020506F77657209203D2025530D0A008EEF
:100140000087007F007800435243204C656E67743F
:100150006809203D2025530D0A00A4009D0095004C
:100160004D6F64656C0909203D2025530D0A00B7C9
:1001700000AD0044617461205261746509203D2026
:1001800025530D0A00CE00C800C00044594E50440B
:100190002F4645415455524500434F4E4649470965
:1001A0000052465F53455455500052465F4348093C
:1001B00000454E5F52584144445200454E5F414114
:1001C000090052585F50575F50302D360054585F29
:1001D00041444452090052585F414444525F5032F6
:1001E0002D350052585F414444525F50302D31004C
:1001F0000A0B0C0D0E0F0D0A00253032780020304E
:100200007800255309203D000D0A00203078253064
:10021000327800255309203D000000000025002809
:10022000002B0000000000240027002A0004040422
:10023000040404040402020202020203030303038F
:10024000030102040810204080010204081020016C
:1002500002040810201112131415160001020304E1
:100260000500070B11241FBECFEFD8E0DEBFCDBFC6
:1002700011E0A0E0B1E0E2E1F0E202C005900D92F1
:10028000A635B107D9F722E0A6E5B1E001C01D927D
:10029000A932B207E1F711E0C2E3D1E004C021972F
:1002A000FE010E94630BC133D107C9F70E942407E6
:1002B0000C9407100C940000CF92DF92EF92FF9203
:1002C0000F931F93CF93DF936C017A018B01C0E0F2
:1002D000D0E0CE15DF0589F0D8016D918D01D601F2
:1002E000ED91FC910190F081E02DC6010995892BDB
:1002F00011F47E0102C02196ECCFC701DF91CF91AE
:100300001F910F91FF90EF90DF90CF900895FC0127
:10031000918D828D981761F0828DDF01A80FB11D3C
:100320005D968C91928D9F5F9F73928F90E0089560
:100330008FEF9FEF0895FC01918D828D981731F01A
:10034000828DE80FF11D858D90E008958FEF9FEF6E
:100350000895FC01918D228D892F90E0805C9F4F44
:10036000821B91098F739927089580E791E00E947D
:10037000A90121E0892B09F420E0822F0895FC01D6
:10038000848DDF01A80FB11DA35ABF4F2C91848D1E
:1003900090E001968F739927848FA689B7892C9353
:1003A000A089B1898C9180648C93938D848D9813EE
:1003B00006C00288F389E02D80818F7D80830895B7
:1003C000EF92FF920F931F93CF93DF93EC0181E0A5
:1003D000888F9B8D8C8D981305C0E889F989808161
:1003E00085FD24C0F62E0B8D10E00F5F1F4F0F739D
:1003F0001127E02E8C8DE8120CC00FB607FCFACF47
:10040000E889F989808185FFF5CFCE010E94BF017F
:10041000F1CF8B8DFE01E80FF11DE35AFF4FF08203
:100420000B8FEA89FB898081806207C0EE89FF8992
:100430006083E889F98980818064808381E090E02D
:10044000DF91CF911F910F91FF90EF900895CF937F
:10045000DF93EC01888D8823C9F0EA89FB898081CC
:1004600085FD05C0A889B9898C9186FD0FC00FB69E
:1004700007FCF5CF808185FFF2CFA889B9898C91DF
:1004800085FFEDCFCE010E94BF01E7CFDF91CF9175
:10049000089580E090E0892B29F00E94B501811138
:1004A0000C94000008953FB7F89480915B019091FF
:1004B0005C01A0915D01B0915E0126B5A89B05C0CD
:1004C0002F3F19F00196A11DB11D3FBFBA2FA92FD3
:1004D000982F8827820F911DA11DB11DBC01CD0150
:1004E00042E0660F771F881F991F4A95D1F708953C
:1004F000CF93C82F682F80E791E00E94E0018C2FF6
:10050000CC0F990BCF91089526EC32EC42EC52ECD3
:1005100062EC70E080E090E00E94FE040E94900493
:100520006EE186E191E00E94260486E191E00E945E
:10053000340584E391E00C9434050E94690B1F920A
:100540000F920FB60F9211242F933F934F935F9307
:100550006F937F938F939F93AF93BF93EF93FF938B
:1005600080E791E00E94BF01FF91EF91BF91AF91B1
:100570009F918F917F916F915F914F913F912F91BB
:100580000F900FBE0F901F9018951F920F920FB6ED
:100590000F9211242F938F939F93EF93FF93E091EA
:1005A0008001F09181018081E0918601F0918701C5
:1005B00082FD12C09081809189018F5F8F7320919D
:1005C0008A01821751F0E0918901F0E0E059FE4F75
:1005D000958F8093890101C08081FF91EF919F9158
:1005E0008F912F910F900FBE0F901F90189590E054
:1005F000FC01EC52FF4F3491FC01EF5BFD4F249165
:10060000FC01E35DFD4FE491EE2309F43BC033238D
:1006100039F1333091F038F43130A9F0323001F54E
:1006200084B58F7D12C0373091F03830A1F034306E
:10063000B9F4809180008F7D03C0809180008F7716
:10064000809380000DC084B58F7784BD09C08091F0
:10065000B0008F7703C08091B0008F7D8093B00091
:10066000F0E0EE0FFF1FE75EFD4FA591B4918FB74D
:10067000F894EC91611103C020952E2301C02E2B1C
:100680002C938FBF08958F929F92AF92BF92CF927B
:10069000DF92EF92FF926B017C010E9453024B01AB
:1006A0005C01C114D104E104F104F1F00E94530291
:1006B000DC01CB0188199909AA09BB09883E93403E
:1006C000A105B10570F321E0C21AD108E108F108D3
:1006D00088EE880E83E0981EA11CB11CC114D104C1
:1006E000E104F10419F7DDCFFF90EF90DF90CF9098
:1006F000BF90AF909F908F9008951F920F920FB66A
:100700000F9211242F933F938F939F93AF93BF9397
:100710008091570190915801A0915901B0915A01CF
:100720003091560123E0230F2D3720F40196A11DAF
:10073000B11D05C026E8230F0296A11DB11D20930F
:1007400056018093570190935801A0935901B0939B
:100750005A0180915B0190915C01A0915D01B09183
:100760005E010196A11DB11D80935B0190935C0118
:10077000A0935D01B0935E01BF91AF919F918F9166
:100780003F912F910F900FBE0F901F9018958EBD27
:1007900000000DB407FEFDCF8EB508959CB59F7D7A
:1007A0009CBD9CB5937F9CBD9CB59C7F9CBD9DB51D
:1007B00091609DBD682F80910E020E94F7028FE02C
:1007C00090E00197F1F7089581E00C94CE0380E06A
:1007D0000C94CE03CF93DF931F92CDB7DEB78983FE
:1007E0000E94E70389810E94C70389830E94E40372
:1007F00089810F90DF91CF91089581EE0C94EA03E7
:100800001F93CF93DF9300D0CDB7DEB76A83898380
:100810000E94E70389818F7180620E94C703182FAD
:100820006A81862F0E94C7030E94E403812F0F90E4
:100830000F90DF91CF911F910895682F80910D0245
:1008400090910E0289130C94F7020895DF92EF92B3
:10085000FF920F931F93CF93DF931F92CDB7DEB715
:10086000F82E20911202E62E261708F4E22E80912F
:100870001302811103C0D22EDE1801C0D12C99833E
:100880000E94E70380EA0E94C7030F2D9981192F68
:10089000FE0CF01631F0F80181918F010E94C70320
:1008A000F8CFDD2029F080E00E94C703DA94F9CF69
:1008B0000E94E40381E00E941D048FEF0E94EA037E
:1008C0008073D9F380E00E941D0460E787E00E94F6
:1008D000000484FF04C00E94FD0380E001C081E0A9
:1008E0000F90DF91CF911F910F91FF90EF90DF90CC
:1008F0000895CF93DF931F92CDB7DEB789830E940F
:10090000E70389818F710E94C7038FEF0E94C7039D
:1009100089830E94E40389810F90DF91CF9108952C
:1009200080E00E941D0480911A0290911B02823087
:10093000910538F0880F991F880F991F0597019727
:10094000F1F78DE10E94790481FF10C080911A02B5
:1009500090911B028230910538F0880F991F880F03
:10096000991F05970197F1F70E94FD0380E00E940F
:100970007904682F6E7F80E00E94000482E00E946C
:100980007904EBE5F2E0E49161E070E001C0660F0C
:10099000EA95EAF7682B82E00C940004EF92FF924C
:1009A0000F931F93CF93DF9300D01F92CDB7DEB785
:1009B000162F4A837B8389830E94E70389818F7185
:1009C00080620E94C703082FE12E7B81F72E4A81A7
:1009D000140F1E1531F0F70181917F010E94C703AA
:1009E000F8CF0E94E403802F0F900F900F90DF91BB
:1009F000CF911F910F91FF90EF9008950F931F9348
:100A0000CF93DF93CDB7DEB728970FB6F894DEBF4C
:100A10000FBECDBF29833A834B835C836D837E8376
:100A20008F8398870DE012E0F8014485BE016F5F67
:100A30007F4F8AE00E94CE04F8014485BE016F5FBB
:100A40007F4F80E10E94CE04F801658181E10E9420
:100A5000000428960FB6F894DEBF0FBECDBFDF911D
:100A6000CF911F910F910895009769F0FC010190BB
:100A70000020E9F73197AF01481B590BBC0180E713
:100A800091E00C945C0180E090E008958F929F9239
:100A9000AF92BF92CF92DF92EF92FF920F931F938C
:100AA000CF93DF93CDB7DEB7A1970FB6F894DEBF33
:100AB0000FBECDBF6C01990FEE08FF08F7FE31C0E5
:100AC000E0917001F09171010190F081E02D6DE2F3
:100AD00080E791E009958C0122273327A9012C1981
:100AE0003D094E095F0919A2CE0181967C019AE069
:100AF000892E912CA12CB12CCA01B901A501940118
:100B00000E94410B605DF70162937F012115310561
:100B10004105510589F7CF010E943405080F191FBF
:100B20001EC0A701960119A28E010F5D1F4F8AE01A
:100B3000C82ED12CE12CF12CCA01B901A7019601D4
:100B40000E94410B605DF80162938F012115310510
:100B50004105510589F7CF010E9434058C0184E3DA
:100B600091E00E943405800F911FA1960FB6F89472
:100B7000DEBF0FBECDBFDF91CF911F910F91FF90D0
:100B8000EF90DF90CF90BF90AF909F908F9008959F
:100B900080E00E94790481FD0BC0682F626080E0D4
:100BA0000E94000465E070E080E090E00C94430354
:100BB00008950E94C80580E00E947904682F616052
:100BC00080E00E94000460E787E00E94000481E06A
:100BD0000E941D0480911402882341F04091190263
:100BE00064E172E08AE00E94CE0412C082E00E94BA
:100BF0007904EBE5F2E0E49121E030E001C0220F5E
:100C0000EA95EAF72095622F682382E00E940004AB
:100C10008DE10E94790481FD0C94FD030895E6E5C1
:100C2000F2E08491609112020E94000482E00E942E
:100C30007904ECE5F2E0E49161E070E001C0660F58
:100C4000EA95EAF7682B82E00C94000490E0FC013E
:100C5000EF5BFD4F2491FC01E35DFD4F8491882300
:100C600099F090E0880F991FFC01ED5DFD4FA59173
:100C7000B491FC01E75EFD4F859194918FB7F89494
:100C8000EC91E22BEC938FBF0895EF92FF920F93BC
:100C90001F93CF93DF931F92CDB7DEB7E42E9F93C0
:100CA0008F9383E192E09F938F9369830E94DC0B83
:100CB0006981E60E0F900F900F900F900BE012E0FD
:100CC0006E1591F0FF24F394F60E862F0E9479049E
:100CD0001F928F931F930F930E94DC0B0F900F9026
:100CE0000F900F906F2DECCF88E092E09F938F9341
:100CF0000E94DC0B0F900F900F90DF91CF911F910E
:100D00000F91FF90EF9008952F923F924F925F9234
:100D10006F927F928F929F92AF92BF92CF92DF920B
:100D2000EF92FF920F931F93CF93DF931F92CDB754
:100D3000DEB7562E342E6DB67EB69F938F9382E02B
:100D400092E09F938F930E94DC0B350C0F900F90D5
:100D50000F900F908EEFC82E81E0D82E99EFA92E1C
:100D600091E0B92E531409F44EC08DB69EB6909101
:100D70001902092F10E02DB73EB7201B310B0FB61B
:100D8000F8943EBF0FBE2DBFEDB7FEB731967F0181
:100D900022242394250C99830E94E703852D8F71CB
:100DA0000E94C703270199819E0D941549F08FEF8A
:100DB00099830E94C703F20181932F019981F5CF96
:100DC0000E94E403DF92CF920E94DC0B0E0D1F1DE8
:100DD0000F900F90015011090E151F0568F0F801D2
:100DE00080811F928F93BF92AF920E94DC0B0F9075
:100DF0000F900F900F90EECF0FB6F8949EBE0FBEDF
:100E00008DBE522CAFCF86EF91E09F938F930E94BF
:100E1000DC0B0F900F900FB6F8947EBE0FBE6DBE28
:100E20000F90DF91CF911F910F91FF90EF90DF9086
:100E3000CF90BF90AF909F908F907F906F905F907A
:100E40004F903F902F900895CF93DF93CDB7DEB7AB
:100E5000EA970FB6F894DEBF0FBECDBF789484B585
:100E6000826084BD84B5816084BD85B5826085BDA6
:100E700085B5816085BD80916E00816080936E0034
:100E80001092810080918100826080938100809126
:100E900081008160809381008091800081608093D7
:100EA00080008091B10084608093B1008091B00097
:100EB00081608093B00080917A00846080937A0092
:100EC00080917A00826080937A0080917A008160BC
:100ED00080937A0080917A00806880937A001092E3
:100EE000C100E0918001F091810182E08083E09176
:100EF0007C01F0917D011082E0917E01F0917F01F3
:100F00008FEC808310928801E0918401F09185013B
:100F100086E08083E0918201F0918301808180618D
:100F20008083E0918201F0918301808188608083D9
:100F3000E0918201F0918301808180688083E0915B
:100F40008201F091830180818F7D808360E070E079
:100F500088E792E00E94910B80910D0290910E0221
:100F600089130E94260680910E0290910D0298131B
:100F70000E9426061FB7F89480915F01811124C05A
:100F8000E7E3F2E08491EBE4F2E09491E82FF0E003
:100F9000EE0FFF1FED5DFD4FA591B491EC91E9239C
:100FA00021F461E08AE00E94F7028AE00E942606AE
:100FB0008CB580618CBD8CB580648CBD8DE00E9449
:100FC00026068BE00E94260680915F018F5F80934A
:100FD0005F011FBF80E00E941D0481E00E94CE03DC
:100FE00065E070E080E090E00E9443036CE080E008
:100FF0000E9400046FE584E00E94000486E00E94E5
:101000007904877D182F10628BE990E0A0E0B0E0B2
:1010100080931A0290931B02A0931C02B0931D02AE
:10102000612F86E00E94000486E00E947904811707
:1010300009F4F7C186E00E94790486E00E947904F1
:1010400045E550E060E070E040931A0250931B02C7
:1010500060931C0270931D02682F677D86E00E94DA
:10106000000486E00E9479040E94E70380E50E9464
:10107000C70383E70E94C7030E94E40360E08DE199
:101080000E94000460E08CE10E94000460E787E0B9
:101090000E9400046CE485E00E94000482EE0E943D
:1010A000EA030E94FD030E94C80580E00E947904C3
:1010B000682F6E7F80E00E94000465EA84E00E9451
:1010C000000486E00E947904682F676086E00E9431
:1010D000000420E030E040E050E060E070E080E0BC
:1010E00090E00E94FE0463E187E391E00E94260401
:1010F00019AA1AAA1BAA1CAA1DAA1EAA1FAA18AEC0
:10110000E1EFF1E0849140911902BE016F5C7F4FE5
:101110000E94CE040E940F060E94D9058FEF0E9404
:10112000EA03282F30E0982F91701F929F933595F6
:101130002795277033273F932F9384FB992790F9A6
:101140001F929F9385FB992790F91F929F9386FB8F
:10115000992790F91F929F931F928F9388EE90E0AA
:101160009F938F930E94DC0B42E06AE083EE91E054
:101170000E94840644E06CE086ED91E00E94450602
:1011800041E060E18DEC91E00E94840646E061E17F
:1011900082EC91E00E94450641E061E08BEB91E03A
:1011A0000E94450641E062E081EB91E00E94450625
:1011B00041E065E08AEA91E00E94450641E066E090
:1011C00081EA91E00E94450641E060E089E991E012
:1011D0000E94450642E06CE18BE891E00E944506E2
:1011E00086E00E94790488720FB6F894DEBF0FBEC5
:1011F000CDBF803241F021E090E0883009F020E05E
:10120000E22FF92F02C0E2E0F0E0EE0FFF1FEB57F4
:10121000FE4F859194919F938F9383E791E09F93E5
:101220008F930E94DC0BE0911102F0E0EE0FFF1FA4
:10123000E159FE4F859194919F938F9380E691E0C1
:101240009F938F930E94DC0B80E00E947904182FFB
:1012500081E00E9479040FB6F894DEBF0FBECDBFC7
:1012600013FD02C0882329F012FD06C0E1E0F0E082
:1012700005C0E0E0F0E002C0E2E0F0E0EE0FFF1FAA
:10128000E65AFE4F859194919F938F9387E491E066
:101290009F938F930E94DC0B86E00E9479048670F6
:1012A000E82FF0E0E15CFE4F859194919F938F933E
:1012B0008EE291E09F938F930E94DC0B85E00E9469
:1012C000260684E00E94260683E00E9426068EE021
:1012D0000E9426068FE00E94260680E10E942606D4
:1012E00081E10E94260682E10E94260661E08EE0EE
:1012F0000E94F70268EE73E080E090E00E944303F2
:1013000060E08EE00E94F7020FB6F894DEBF0FBED9
:10131000CDBF9E012F5F3F4F69015E0131E2A30EF9
:10132000B11C1E0189E3280E311C3BE1832E33E002
:10133000932E86EC89A782EC8AA78BA78CA78DA712
:101340001EA61FA618AAE1EFF1E0849140911902B0
:10135000BE01675D7F4F0E94CE040E940F060E946F
:10136000D90587E10E94790480FF5FC057C00E94C1
:10137000E40360E787E00E940004C6010E94340590
:1013800084E391E00E9434058A8198E0F50111928E
:101390009A95E9F789AF8AE08AAF3F922F92AAE443
:1013A000B1E0BF93AF93BF92AF920E946E0B26EC59
:1013B00032EC42EC52EC62EC70E080E090E00E9493
:1013C000FE040E949004C4010197F1F70F900F9062
:1013D0000F900F900F900F9085E0E82EF12C65E0B4
:1013E00080E591E00E942604C4010197F1F7F1E045
:1013F000EF1AF108A1F781E090E0612C712CD8017F
:101400002D918D012D3209F43C0101968132910517
:10141000B1F7E12CF12CE614F704ACF10E9449027B
:1014200088CF81E08093110205CE80E2D6011D9223
:101430008A95E9F780911202803208F4E6C090E2C2
:10144000692E90911302911103C0782E761801C075
:10145000712C0E94E70381E60E94C7038601760192
:101460006A94BFEF6B1639F08FEF0E94C703D70164
:101470008D937D01F5CF772009F479CF8FEF0E940E
:10148000C7037A94F8CFF701D601AE0DBF1D8C913A
:10149000803421F4BFEFEB1AFB0AB3C08C3209F0A1
:1014A000B0C0A4E0B0E0AC0FBD1FAE0DBF1D0C91ED
:1014B00023E0E20EF11C83E090E08C0F9D1FE80F0B
:1014C000F91F4080042C000C5508C201C0970E94EF
:1014D0004605002E000C110B00531109C8010E9493
:1014E0004605F201F197E830F10508F08AC0EC5C9E
:1014F000FF4F0C94630B80916E0190916F018017E8
:10150000910709F473C0602F8EE00E94F7021093D8
:101510006F0100936E0175C080916C0190916D0117
:101520008017910709F462C0602F8FE00E94F702D4
:1015300010936D0100936C0164C080916A019091D9
:101540006B018017910709F451C0602F80E10E9460
:10155000F70210936B0100936A0153C080916801F8
:10156000909169018017910709F440C0602F81E1D3
:101570000E94F702109369010093680142C08091B4
:101580006601909167018017910781F1602F82E1D8
:101590000E94F702109367010093660132C08091A8
:1015A0006401909165018017910701F1602F83E03C
:1015B0000E94F702109365010093640122C080919C
:1015C0006201909163018017910781F0602F84E0A0
:1015D0000E94F702109363010093620112C0809190
:1015E0006001909161018017910719F40E948402B3
:1015F00008C0602F85E00E94F702109361010093FC
:1016000060019FEFE91AF90A06CF682E1ACFE0E7CA
:10161000F1E01382128288EE93E0A0E0B0E08483D0
:101620009583A683B7838AE091E09183808385ECDC
:1016300090E09587848784EC90E09787868780EC9C
:1016400090E0918B808B81EC90E0938B828B82EC8D
:1016500090E0958B848B86EC90E0978B868B118E37
:10166000128E138E148EEDE0F2E089E080838AE022
:101670008183148280E28583168285E084871782C5
:101680000895A1E21A2EAA1BBB1BFD010DC0AA1FC3
:10169000BB1FEE1FFF1FA217B307E407F50720F0DB
:1016A000A21BB30BE40BF50B661F771F881F991F56
:1016B0001A9469F760957095809590959B01AC019F
:1016C000BD01CF010895EE0FFF1F0590F491E02DAD
:1016D000099481E090E0F8940C940710AEE0B0E03B
:1016E000E4E7FBE00C94DE0F0D891E8986E08C8315
:1016F0001A8309838FEF9FE79E838D83AE01475E38
:101700005F4F6F89788DCE0101960E94020C2F8168
:101710003885F801E20FF31F10822E96E4E00C9456
:10172000FA0F0F931F93CF93DF93009731F4611556
:10173000710519F480E090E03AC08B01EC016EE095
:1017400070E081E090E00E94D40DFC01892B91F3C0
:1017500080E883830115110571F01387028781E802
:10176000838380911F0290912002892B21F4F093B2
:101770002002E0931F022097C9F0D187C0878381A0
:10178000826083838091210290912202892B71F4DF
:10179000F0932202E093210280912302909124028F
:1017A000892B21F4F0932402E0932302CF01DF91EF
:1017B000CF911F910F910895A0E0B0E0E2EEFBE021
:1017C0000C94DE0FAE01495F5F4FDA016D917D91A0
:1017D000AD010FE112E0F80182819381DC011396E3
:1017E0002C911397286013962C930E94020CD80119
:1017F0001296ED91FC9113972381277F2383E4E0D8
:101800000C94FA0FACE0B0E0E8E0FCE00C94D00FF0
:101810007C016B018A01FC0117821682838181FFA2
:10182000BDC1CE0101964C01F7019381F60193FDF4
:10183000859193FF81916F01882309F4ABC18532B3
:1018400039F493FD859193FF81916F01853229F4DD
:10185000B70190E00E943A0FE7CF512C312C20E0E5
:101860002032A0F48B3269F030F4803259F08332A8
:1018700069F420612CC08D3239F0803339F4216055
:1018800026C02260246023C0286021C027FD27C015
:1018900030ED380F3A3078F426FF06C0FAE05F9E4C
:1018A000300D1124532E13C08AE0389E300D1124C0
:1018B000332E20620CC08E3221F426FD6BC12064D1
:1018C00006C08C3611F4206802C0883641F4F60157
:1018D00093FD859193FF81916F018111C1CF982F65
:1018E0009F7D9554933028F40C5F1F4FFFE3F983DD
:1018F0000DC0833631F0833771F0833509F05BC05A
:1019000022C0F801808189830E5F1F4F44244394D5
:10191000512C540115C03801F2E06F0E711CF80112
:10192000A080B18026FF03C0652D70E002C06FEF7C
:101930007FEFC5012C870E942F0F2C0183012C857E
:101940002F77222E17C03801F2E06F0E711CF801BC
:10195000A080B18026FF03C0652D70E002C06FEF4C
:101960007FEFC5012C870E941D0F2C012C8520685C
:10197000222E830123FC1BC0832D90E048165906BC
:10198000B0F4B70180E290E00E943A0F3A94F4CFAD
:10199000F50127FC859127FE81915F01B70190E059
:1019A0000E943A0F31103A94F1E04F1A5108411455
:1019B000510471F7E5C0843611F0893639F5F80124
:1019C00027FF07C060817181828193810C5F1F4F67
:1019D00008C060817181072E000C880B990B0E5F87
:1019E0001F4F2F76722E97FF09C0909580957095A6
:1019F00061957F4F8F4F9F4F2068722E2AE030E015
:101A0000A4010E94720FA82EA81844C0853729F49B
:101A10002F7EB22E2AE030E025C0F22FF97FBF2EB4
:101A20008F36C1F018F4883579F0B4C0803719F0DA
:101A3000883721F0AFC02F2F2061B22EB4FE0DC029
:101A40008B2D8460B82E09C024FF0AC09F2F96609A
:101A5000B92E06C028E030E005C020E130E002C029
:101A600020E132E0F801B7FE07C060817181828118
:101A700093810C5F1F4F06C06081718180E090E010
:101A80000E5F1F4FA4010E94720FA82EA818FB2DF5
:101A9000FF777F2E76FE0BC0372D3E7FA51450F4C6
:101AA00074FE0AC072FC08C0372D3E7E05C0BA2CF9
:101AB000372D03C0BA2C01C0B52C34FF0DC0FE0178
:101AC000EA0DF11D8081803311F4397E09C032FFA7
:101AD00006C0B394B39404C0832F867809F0B394FE
:101AE00033FD13C030FF06C05A2CB31418F4530C46
:101AF0005B18B32CB31468F4B70180E290E03C8724
:101B00000E943A0FB3943C85F5CFB31410F43B1800
:101B100001C0312C34FF12C0B70180E390E03C8754
:101B20000E943A0F3C8532FF17C031FD03C088E7A1
:101B300090E002C088E590E0B7010CC0832F867862
:101B400059F031FF02C08BE201C080E237FD8DE227
:101B5000B70190E00E943A0FA51438F4B70180E372
:101B600090E00E943A0F5A94F7CFAA94F401EA0D3C
:101B7000F11D8081B70190E00E943A0FA110F5CFCE
:101B8000332009F451CEB70180E290E00E943A0F71
:101B90003A94F6CFF7018681978102C08FEF9FEFCD
:101BA0002C96E2E10C94EC0F0F931F93CF93DF93ED
:101BB000869F8001879F100D969F100D1124C801EC
:101BC0000E94F00DEC01009729F0A80160E070E0A0
:101BD0000E94280FCE01DF91CF911F910F910895A0
:101BE000CF93DF938230910510F482E090E0E09192
:101BF0002702F091280220E030E0C0E0D0E03097EA
:101C000011F14081518148175907C0F04817590711
:101C100061F482819381209719F09B838A832BC082
:101C2000909328028093270226C02115310519F0D0
:101C30004217530718F49A01BE01DF01EF01028039
:101C4000F381E02DDCCF2115310509F1281B390B7B
:101C50002430310590F412968D919C911397611563
:101C6000710521F0FB019383828304C090932802C5
:101C700080932702FD01329644C0FD01E20FF31F5D
:101C800081939193225031092D933C933AC0209136
:101C9000250230912602232B41F42091020130913C
:101CA00003013093260220932502209100013091F8
:101CB00001012115310541F42DB73EB740910401D2
:101CC00050910501241B350BE0912502F09126026D
:101CD000E217F307A0F42E1B3F0B2817390778F003
:101CE000AC014E5F5F4F2417350748F04E0F5F1F62
:101CF00050932602409325028193919302C0E0E025
:101D0000F0E0CF01DF91CF9108950F931F93CF9310
:101D1000DF93009709F48CC0FC0132971382128282
:101D200000912702109128020115110581F42081EC
:101D30003181820F931F20912502309126022817AE
:101D4000390779F5F0932602E093250271C0D80196
:101D500040E050E0AE17BF0750F412962D913C9131
:101D60001397AD012115310509F1D901F3CF9D017B
:101D7000DA013383228360817181860F971F821776
:101D8000930769F4EC0128813981260F371F2E5FF4
:101D90003F4F318320838A819B8193838283452BAC
:101DA00029F4F0932802E093270242C01396FC9393
:101DB000EE931297ED01499159919E01240F351F21
:101DC000E217F30771F480819181840F951F0296C9
:101DD00011969C938E938281938113969C938E93FC
:101DE0001297E0E0F0E0D80112968D919C91139744
:101DF000009719F0F8018C01F6CF8D919C91980114
:101E00002E5F3F4F820F931F2091250230912602B3
:101E10002817390769F4309729F410922802109294
:101E2000270202C013821282109326020093250219
:101E3000DF91CF911F910F910895FC0105906150A2
:101E400070400110D8F7809590958E0F9F1F0895D0
:101E5000DC0101C06D9341505040E0F70895FC0152
:101E60006150704001900110D8F7809590958E0FC9
:101E70009F1F08950F931F93CF93DF93FB0123813F
:101E800021FD03C08FEF9FEF28C022FF16C04681BF
:101E90005781248135814217530744F4A081B181D1
:101EA0009D012F5F3F4F318320838C9326813781A3
:101EB0002F5F3F4F3783268310C0EB01092F182F68
:101EC0000084F185E02D0995892BE1F68E819F81B3
:101ED00001969F838E83812F902FDF91CF911F9149
:101EE0000F910895FA01AA27283051F1203181F18C
:101EF000E8946F936E7F6E5F7F4F8F4F9F4FAF4F12
:101F0000B1E03ED0B4E03CD0670F781F891F9A1F24
:101F1000A11D680F791F8A1F911DA11D6A0F711DD8
:101F2000811D911DA11D20D009F468943F912AE0E4
:101F3000269F11243019305D3193DEF6CF010895CC
:101F4000462F4770405D4193B3E00FD0C9F7F6CFFD
:101F5000462F4F70405D4A3318F0495D31FD4052C5
:101F6000419302D0A9F7EACFB4E0A695979587955B
:101F700077956795BA95C9F700976105710508953A
:101F80009B01AC010A2E06945795479537952795E6
:101F9000BA95C9F7620F731F841F951FA01D08957E
:101FA0002F923F924F925F926F927F928F929F9269
:101FB000AF92BF92CF92DF92EF92FF920F931F9357
:101FC000CF93DF93CDB7DEB7CA1BDB0B0FB6F89408
:101FD000DEBF0FBECDBF09942A88398848885F8448
:101FE0006E847D848C849B84AA84B984C884DF80B9
:101FF000EE80FD800C811B81AA81B981CE0FD11D9D
:102000000FB6F894DEBF0FBECDBFED010895F89472
:02201000FFCF00
:1020120000002902800000000000E0015C01A9012B
:1020220087019B0127025468652076616C756520E3
:1020320068617320626565642073657420626566F9
:102042006F7265000D0A005468697320697320611C
:1020520063747561746F7220310073657425730047
:06206200736574310000FB
:00000001FF
